{
  "_format": "hh-sol-artifact-1",
  "contractName": "DAOGovernance",
  "sourceName": "contracts/DAOGovernance.sol",
  "abi": [
    {
      "inputs": [
        {
          "internalType": "address",
          "name": "_governanceToken",
          "type": "address"
        }
      ],
      "stateMutability": "nonpayable",
      "type": "constructor"
    },
    {
      "inputs": [
        {
          "internalType": "address",
          "name": "owner",
          "type": "address"
        }
      ],
      "name": "OwnableInvalidOwner",
      "type": "error"
    },
    {
      "inputs": [
        {
          "internalType": "address",
          "name": "account",
          "type": "address"
        }
      ],
      "name": "OwnableUnauthorizedAccount",
      "type": "error"
    },
    {
      "anonymous": false,
      "inputs": [
        {
          "indexed": true,
          "internalType": "address",
          "name": "previousOwner",
          "type": "address"
        },
        {
          "indexed": true,
          "internalType": "address",
          "name": "newOwner",
          "type": "address"
        }
      ],
      "name": "OwnershipTransferred",
      "type": "event"
    },
    {
      "anonymous": false,
      "inputs": [
        {
          "indexed": true,
          "internalType": "uint256",
          "name": "proposalId",
          "type": "uint256"
        },
        {
          "indexed": false,
          "internalType": "address",
          "name": "proposer",
          "type": "address"
        },
        {
          "indexed": false,
          "internalType": "string",
          "name": "description",
          "type": "string"
        }
      ],
      "name": "ProposalCreated",
      "type": "event"
    },
    {
      "anonymous": false,
      "inputs": [
        {
          "indexed": true,
          "internalType": "uint256",
          "name": "proposalId",
          "type": "uint256"
        }
      ],
      "name": "ProposalExecuted",
      "type": "event"
    },
    {
      "anonymous": false,
      "inputs": [
        {
          "indexed": true,
          "internalType": "uint256",
          "name": "proposalId",
          "type": "uint256"
        },
        {
          "indexed": false,
          "internalType": "address",
          "name": "voter",
          "type": "address"
        },
        {
          "indexed": false,
          "internalType": "bool",
          "name": "support",
          "type": "bool"
        },
        {
          "indexed": false,
          "internalType": "uint256",
          "name": "votes",
          "type": "uint256"
        }
      ],
      "name": "Voted",
      "type": "event"
    },
    {
      "inputs": [],
      "name": "MIN_VOTES_REQUIRED",
      "outputs": [
        {
          "internalType": "uint256",
          "name": "",
          "type": "uint256"
        }
      ],
      "stateMutability": "view",
      "type": "function"
    },
    {
      "inputs": [],
      "name": "VOTING_PERIOD",
      "outputs": [
        {
          "internalType": "uint256",
          "name": "",
          "type": "uint256"
        }
      ],
      "stateMutability": "view",
      "type": "function"
    },
    {
      "inputs": [
        {
          "internalType": "uint256",
          "name": "proposalId",
          "type": "uint256"
        }
      ],
      "name": "executeProposal",
      "outputs": [],
      "stateMutability": "nonpayable",
      "type": "function"
    },
    {
      "inputs": [
        {
          "internalType": "uint256",
          "name": "proposalId",
          "type": "uint256"
        }
      ],
      "name": "getProposalState",
      "outputs": [
        {
          "internalType": "enum DAOGovernance.ProposalState",
          "name": "",
          "type": "uint8"
        }
      ],
      "stateMutability": "view",
      "type": "function"
    },
    {
      "inputs": [],
      "name": "governanceToken",
      "outputs": [
        {
          "internalType": "contract GovernanceToken",
          "name": "",
          "type": "address"
        }
      ],
      "stateMutability": "view",
      "type": "function"
    },
    {
      "inputs": [
        {
          "internalType": "uint256",
          "name": "",
          "type": "uint256"
        },
        {
          "internalType": "address",
          "name": "",
          "type": "address"
        }
      ],
      "name": "hasVoted",
      "outputs": [
        {
          "internalType": "bool",
          "name": "",
          "type": "bool"
        }
      ],
      "stateMutability": "view",
      "type": "function"
    },
    {
      "inputs": [],
      "name": "owner",
      "outputs": [
        {
          "internalType": "address",
          "name": "",
          "type": "address"
        }
      ],
      "stateMutability": "view",
      "type": "function"
    },
    {
      "inputs": [],
      "name": "proposalCount",
      "outputs": [
        {
          "internalType": "uint256",
          "name": "",
          "type": "uint256"
        }
      ],
      "stateMutability": "view",
      "type": "function"
    },
    {
      "inputs": [
        {
          "internalType": "uint256",
          "name": "",
          "type": "uint256"
        }
      ],
      "name": "proposals",
      "outputs": [
        {
          "internalType": "uint256",
          "name": "id",
          "type": "uint256"
        },
        {
          "internalType": "address",
          "name": "proposer",
          "type": "address"
        },
        {
          "internalType": "string",
          "name": "description",
          "type": "string"
        },
        {
          "internalType": "uint256",
          "name": "forVotes",
          "type": "uint256"
        },
        {
          "internalType": "uint256",
          "name": "againstVotes",
          "type": "uint256"
        },
        {
          "internalType": "uint256",
          "name": "startBlock",
          "type": "uint256"
        },
        {
          "internalType": "uint256",
          "name": "endTime",
          "type": "uint256"
        },
        {
          "internalType": "bool",
          "name": "executed",
          "type": "bool"
        }
      ],
      "stateMutability": "view",
      "type": "function"
    },
    {
      "inputs": [
        {
          "internalType": "string",
          "name": "description",
          "type": "string"
        }
      ],
      "name": "propose",
      "outputs": [
        {
          "internalType": "uint256",
          "name": "",
          "type": "uint256"
        }
      ],
      "stateMutability": "nonpayable",
      "type": "function"
    },
    {
      "inputs": [],
      "name": "renounceOwnership",
      "outputs": [],
      "stateMutability": "nonpayable",
      "type": "function"
    },
    {
      "inputs": [
        {
          "internalType": "address",
          "name": "newOwner",
          "type": "address"
        }
      ],
      "name": "transferOwnership",
      "outputs": [],
      "stateMutability": "nonpayable",
      "type": "function"
    },
    {
      "inputs": [
        {
          "internalType": "uint256",
          "name": "proposalId",
          "type": "uint256"
        },
        {
          "internalType": "bool",
          "name": "support",
          "type": "bool"
        }
      ],
      "name": "vote",
      "outputs": [],
      "stateMutability": "nonpayable",
      "type": "function"
    }
  ],
  "bytecode": "0x60806040523480156200001157600080fd5b5060405162001b4538038062001b45833981810160405281019062000037919062000235565b33600073ffffffffffffffffffffffffffffffffffffffff168173ffffffffffffffffffffffffffffffffffffffff1603620000ad5760006040517f1e4fbdf7000000000000000000000000000000000000000000000000000000008152600401620000a4919062000278565b60405180910390fd5b620000be816200010760201b60201c565b5080600160006101000a81548173ffffffffffffffffffffffffffffffffffffffff021916908373ffffffffffffffffffffffffffffffffffffffff1602179055505062000295565b60008060009054906101000a900473ffffffffffffffffffffffffffffffffffffffff169050816000806101000a81548173ffffffffffffffffffffffffffffffffffffffff021916908373ffffffffffffffffffffffffffffffffffffffff1602179055508173ffffffffffffffffffffffffffffffffffffffff168173ffffffffffffffffffffffffffffffffffffffff167f8be0079c531659141344cd1fd0a4f28419497f9722a3daafe3b4186f6b6457e060405160405180910390a35050565b600080fd5b600073ffffffffffffffffffffffffffffffffffffffff82169050919050565b6000620001fd82620001d0565b9050919050565b6200020f81620001f0565b81146200021b57600080fd5b50565b6000815190506200022f8162000204565b92915050565b6000602082840312156200024e576200024d620001cb565b5b60006200025e848285016200021e565b91505092915050565b6200027281620001f0565b82525050565b60006020820190506200028f600083018462000267565b92915050565b6118a080620002a56000396000f3fe608060405234801561001057600080fd5b50600436106100cf5760003560e01c8063aa98df391161008c578063c9d27afe11610066578063c9d27afe1461021b578063da35c66414610237578063f2fde38b14610255578063f96dae0a14610271576100cf565b8063aa98df39146101af578063b1610d7e146101df578063c58b5129146101fd576100cf565b8063013cf08b146100d45780630d61b5191461010b5780634385963214610127578063715018a6146101575780638da5cb5b146101615780639080936f1461017f575b600080fd5b6100ee60048036038101906100e99190610c70565b61028f565b604051610102989796959493929190610d98565b60405180910390f35b61012560048036038101906101209190610c70565b61038c565b005b610141600480360381019061013c9190610e49565b610460565b60405161014e9190610e89565b60405180910390f35b61015f61048f565b005b6101696104a3565b6040516101769190610ea4565b60405180910390f35b61019960048036038101906101949190610c70565b6104cc565b6040516101a69190610f36565b60405180910390f35b6101c960048036038101906101c49190611086565b610540565b6040516101d691906110cf565b60405180910390f35b6101e761073d565b6040516101f491906110cf565b60405180910390f35b610205610743565b60405161021291906110cf565b60405180910390f35b61023560048036038101906102309190611116565b610750565b005b61023f610a21565b60405161024c91906110cf565b60405180910390f35b61026f600480360381019061026a9190611156565b610a27565b005b610279610aad565b60405161028691906111e2565b60405180910390f35b60046020528060005260406000206000915090508060000154908060010160009054906101000a900473ffffffffffffffffffffffffffffffffffffffff16908060020180546102de9061122c565b80601f016020809104026020016040519081016040528092919081815260200182805461030a9061122c565b80156103575780601f1061032c57610100808354040283529160200191610357565b820191906000526020600020905b81548152906001019060200180831161033a57829003601f168201915b5050505050908060030154908060040154908060050154908060060154908060070160009054906101000a900460ff16905088565b600260048111156103a05761039f610ebf565b5b6103a9826104cc565b60048111156103bb576103ba610ebf565b5b146103fb576040517f08c379a00000000000000000000000000000000000000000000000000000000081526004016103f2906112a9565b60405180910390fd5b600060046000838152602001908152602001600020905060018160070160006101000a81548160ff021916908315150217905550817f712ae1383f79ac853f8d882153778e0260ef8f03b504e2866e0593e04d2b291f60405160405180910390a25050565b60036020528160005260406000206020528060005260406000206000915091509054906101000a900460ff1681565b610497610ad3565b6104a16000610b5a565b565b60008060009054906101000a900473ffffffffffffffffffffffffffffffffffffffff16905090565b6000806004600084815260200190815260200160002090508060070160009054906101000a900460ff161561050557600491505061053b565b806006015442101561051b57600191505061053b565b80600401548160030154111561053557600291505061053b565b60039150505b919050565b600068056bc75e2d63100000600160009054906101000a900473ffffffffffffffffffffffffffffffffffffffff1673ffffffffffffffffffffffffffffffffffffffff16639ab24eb0336040518263ffffffff1660e01b81526004016105a79190610ea4565b602060405180830381865afa1580156105c4573d6000803e3d6000fd5b505050506040513d601f19601f820116820180604052508101906105e891906112de565b1015610629576040517f08c379a000000000000000000000000000000000000000000000000000000000815260040161062090611357565b60405180910390fd5b6002600081548092919061063c906113a6565b9190505550600060025490506000600460008381526020019081526020016000209050818160000181905550338160010160006101000a81548173ffffffffffffffffffffffffffffffffffffffff021916908373ffffffffffffffffffffffffffffffffffffffff160217905550838160020190816106bc9190611590565b5043816005018190555061012c426106d49190611662565b816006018190555060008160070160006101000a81548160ff021916908315150217905550817f7585f467599d0f008985f231af99293be388626ac16ca59505c2f8f88969cd63338660405161072b929190611696565b60405180910390a28192505050919050565b61012c81565b68056bc75e2d6310000081565b6000600460008481526020019081526020016000209050806006015442106107ad576040517f08c379a00000000000000000000000000000000000000000000000000000000081526004016107a490611712565b60405180910390fd5b6003600084815260200190815260200160002060003373ffffffffffffffffffffffffffffffffffffffff1673ffffffffffffffffffffffffffffffffffffffff16815260200190815260200160002060009054906101000a900460ff161561084b576040517f08c379a00000000000000000000000000000000000000000000000000000000081526004016108429061177e565b60405180910390fd5b6000600160009054906101000a900473ffffffffffffffffffffffffffffffffffffffff1673ffffffffffffffffffffffffffffffffffffffff16633a46b1a83384600501546040518363ffffffff1660e01b81526004016108ae92919061179e565b602060405180830381865afa1580156108cb573d6000803e3d6000fd5b505050506040513d601f19601f820116820180604052508101906108ef91906112de565b905060008111610934576040517f08c379a000000000000000000000000000000000000000000000000000000000815260040161092b90611813565b60405180910390fd5b60016003600086815260200190815260200160002060003373ffffffffffffffffffffffffffffffffffffffff1673ffffffffffffffffffffffffffffffffffffffff16815260200190815260200160002060006101000a81548160ff02191690831515021790555082156109c357808260030160008282546109b79190611662565b925050819055506109df565b808260040160008282546109d79190611662565b925050819055505b837f7c2de587c00d75474a0c6c6fa96fd3b45dc974cd4e8a75f712bb84c950dce1b5338584604051610a1393929190611833565b60405180910390a250505050565b60025481565b610a2f610ad3565b600073ffffffffffffffffffffffffffffffffffffffff168173ffffffffffffffffffffffffffffffffffffffff1603610aa15760006040517f1e4fbdf7000000000000000000000000000000000000000000000000000000008152600401610a989190610ea4565b60405180910390fd5b610aaa81610b5a565b50565b600160009054906101000a900473ffffffffffffffffffffffffffffffffffffffff1681565b610adb610c1e565b73ffffffffffffffffffffffffffffffffffffffff16610af96104a3565b73ffffffffffffffffffffffffffffffffffffffff1614610b5857610b1c610c1e565b6040517f118cdaa7000000000000000000000000000000000000000000000000000000008152600401610b4f9190610ea4565b60405180910390fd5b565b60008060009054906101000a900473ffffffffffffffffffffffffffffffffffffffff169050816000806101000a81548173ffffffffffffffffffffffffffffffffffffffff021916908373ffffffffffffffffffffffffffffffffffffffff1602179055508173ffffffffffffffffffffffffffffffffffffffff168173ffffffffffffffffffffffffffffffffffffffff167f8be0079c531659141344cd1fd0a4f28419497f9722a3daafe3b4186f6b6457e060405160405180910390a35050565b600033905090565b6000604051905090565b600080fd5b600080fd5b6000819050919050565b610c4d81610c3a565b8114610c5857600080fd5b50565b600081359050610c6a81610c44565b92915050565b600060208284031215610c8657610c85610c30565b5b6000610c9484828501610c5b565b91505092915050565b610ca681610c3a565b82525050565b600073ffffffffffffffffffffffffffffffffffffffff82169050919050565b6000610cd782610cac565b9050919050565b610ce781610ccc565b82525050565b600081519050919050565b600082825260208201905092915050565b60005b83811015610d27578082015181840152602081019050610d0c565b60008484015250505050565b6000601f19601f8301169050919050565b6000610d4f82610ced565b610d598185610cf8565b9350610d69818560208601610d09565b610d7281610d33565b840191505092915050565b60008115159050919050565b610d9281610d7d565b82525050565b600061010082019050610dae600083018b610c9d565b610dbb602083018a610cde565b8181036040830152610dcd8189610d44565b9050610ddc6060830188610c9d565b610de96080830187610c9d565b610df660a0830186610c9d565b610e0360c0830185610c9d565b610e1060e0830184610d89565b9998505050505050505050565b610e2681610ccc565b8114610e3157600080fd5b50565b600081359050610e4381610e1d565b92915050565b60008060408385031215610e6057610e5f610c30565b5b6000610e6e85828601610c5b565b9250506020610e7f85828601610e34565b9150509250929050565b6000602082019050610e9e6000830184610d89565b92915050565b6000602082019050610eb96000830184610cde565b92915050565b7f4e487b7100000000000000000000000000000000000000000000000000000000600052602160045260246000fd5b60058110610eff57610efe610ebf565b5b50565b6000819050610f1082610eee565b919050565b6000610f2082610f02565b9050919050565b610f3081610f15565b82525050565b6000602082019050610f4b6000830184610f27565b92915050565b600080fd5b600080fd5b7f4e487b7100000000000000000000000000000000000000000000000000000000600052604160045260246000fd5b610f9382610d33565b810181811067ffffffffffffffff82111715610fb257610fb1610f5b565b5b80604052505050565b6000610fc5610c26565b9050610fd18282610f8a565b919050565b600067ffffffffffffffff821115610ff157610ff0610f5b565b5b610ffa82610d33565b9050602081019050919050565b82818337600083830152505050565b600061102961102484610fd6565b610fbb565b90508281526020810184848401111561104557611044610f56565b5b611050848285611007565b509392505050565b600082601f83011261106d5761106c610f51565b5b813561107d848260208601611016565b91505092915050565b60006020828403121561109c5761109b610c30565b5b600082013567ffffffffffffffff8111156110ba576110b9610c35565b5b6110c684828501611058565b91505092915050565b60006020820190506110e46000830184610c9d565b92915050565b6110f381610d7d565b81146110fe57600080fd5b50565b600081359050611110816110ea565b92915050565b6000806040838503121561112d5761112c610c30565b5b600061113b85828601610c5b565b925050602061114c85828601611101565b9150509250929050565b60006020828403121561116c5761116b610c30565b5b600061117a84828501610e34565b91505092915050565b6000819050919050565b60006111a86111a361119e84610cac565b611183565b610cac565b9050919050565b60006111ba8261118d565b9050919050565b60006111cc826111af565b9050919050565b6111dc816111c1565b82525050565b60006020820190506111f760008301846111d3565b92915050565b7f4e487b7100000000000000000000000000000000000000000000000000000000600052602260045260246000fd5b6000600282049050600182168061124457607f821691505b602082108103611257576112566111fd565b5b50919050565b7f50726f706f73616c206e6f742073756363656564656400000000000000000000600082015250565b6000611293601683610cf8565b915061129e8261125d565b602082019050919050565b600060208201905081810360008301526112c281611286565b9050919050565b6000815190506112d881610c44565b92915050565b6000602082840312156112f4576112f3610c30565b5b6000611302848285016112c9565b91505092915050565b7f4e6f7420656e6f75676820766f74657300000000000000000000000000000000600082015250565b6000611341601083610cf8565b915061134c8261130b565b602082019050919050565b6000602082019050818103600083015261137081611334565b9050919050565b7f4e487b7100000000000000000000000000000000000000000000000000000000600052601160045260246000fd5b60006113b182610c3a565b91507fffffffffffffffffffffffffffffffffffffffffffffffffffffffffffffffff82036113e3576113e2611377565b5b600182019050919050565b60008190508160005260206000209050919050565b60006020601f8301049050919050565b600082821b905092915050565b6000600883026114507fffffffffffffffffffffffffffffffffffffffffffffffffffffffffffffffff82611413565b61145a8683611413565b95508019841693508086168417925050509392505050565b600061148d61148861148384610c3a565b611183565b610c3a565b9050919050565b6000819050919050565b6114a783611472565b6114bb6114b382611494565b848454611420565b825550505050565b600090565b6114d06114c3565b6114db81848461149e565b505050565b5b818110156114ff576114f46000826114c8565b6001810190506114e1565b5050565b601f82111561154457611515816113ee565b61151e84611403565b8101602085101561152d578190505b61154161153985611403565b8301826114e0565b50505b505050565b600082821c905092915050565b600061156760001984600802611549565b1980831691505092915050565b60006115808383611556565b9150826002028217905092915050565b61159982610ced565b67ffffffffffffffff8111156115b2576115b1610f5b565b5b6115bc825461122c565b6115c7828285611503565b600060209050601f8311600181146115fa57600084156115e8578287015190505b6115f28582611574565b86555061165a565b601f198416611608866113ee565b60005b828110156116305784890151825560018201915060208501945060208101905061160b565b8683101561164d5784890151611649601f891682611556565b8355505b6001600288020188555050505b505050505050565b600061166d82610c3a565b915061167883610c3a565b92508282019050808211156116905761168f611377565b5b92915050565b60006040820190506116ab6000830185610cde565b81810360208301526116bd8184610d44565b90509392505050565b7f566f74696e6720656e6465640000000000000000000000000000000000000000600082015250565b60006116fc600c83610cf8565b9150611707826116c6565b602082019050919050565b6000602082019050818103600083015261172b816116ef565b9050919050565b7f416c726561647920766f74656400000000000000000000000000000000000000600082015250565b6000611768600d83610cf8565b915061177382611732565b602082019050919050565b600060208201905081810360008301526117978161175b565b9050919050565b60006040820190506117b36000830185610cde565b6117c06020830184610c9d565b9392505050565b7f4e6f20766f74696e6720706f7765720000000000000000000000000000000000600082015250565b60006117fd600f83610cf8565b9150611808826117c7565b602082019050919050565b6000602082019050818103600083015261182c816117f0565b9050919050565b60006060820190506118486000830186610cde565b6118556020830185610d89565b6118626040830184610c9d565b94935050505056fea2646970667358221220fd8a53709fd90406f14b356218176bdf8bc176bedd01d36e4660b04cdf325f0964736f6c63430008140033",
  "linkReferences": {},
  "deployedLinkReferences": {}
}