{
  "_format": "hh-sol-artifact-1",
  "contractName": "GovernanceToken",
  "sourceName": "contracts/GovernanceToken.sol",
  "abi": [
    {
      "inputs": [
        {
          "internalType": "uint256",
          "name": "initialSupply",
          "type": "uint256"
        }
      ],
      "stateMutability": "nonpayable",
      "type": "constructor"
    },
    {
      "inputs": [],
      "name": "CheckpointUnorderedInsertion",
      "type": "error"
    },
    {
      "inputs": [],
      "name": "ECDSAInvalidSignature",
      "type": "error"
    },
    {
      "inputs": [
        {
          "internalType": "uint256",
          "name": "length",
          "type": "uint256"
        }
      ],
      "name": "ECDSAInvalidSignatureLength",
      "type": "error"
    },
    {
      "inputs": [
        {
          "internalType": "bytes32",
          "name": "s",
          "type": "bytes32"
        }
      ],
      "name": "ECDSAInvalidSignatureS",
      "type": "error"
    },
    {
      "inputs": [
        {
          "internalType": "uint256",
          "name": "increasedSupply",
          "type": "uint256"
        },
        {
          "internalType": "uint256",
          "name": "cap",
          "type": "uint256"
        }
      ],
      "name": "ERC20ExceededSafeSupply",
      "type": "error"
    },
    {
      "inputs": [
        {
          "internalType": "address",
          "name": "spender",
          "type": "address"
        },
        {
          "internalType": "uint256",
          "name": "allowance",
          "type": "uint256"
        },
        {
          "internalType": "uint256",
          "name": "needed",
          "type": "uint256"
        }
      ],
      "name": "ERC20InsufficientAllowance",
      "type": "error"
    },
    {
      "inputs": [
        {
          "internalType": "address",
          "name": "sender",
          "type": "address"
        },
        {
          "internalType": "uint256",
          "name": "balance",
          "type": "uint256"
        },
        {
          "internalType": "uint256",
          "name": "needed",
          "type": "uint256"
        }
      ],
      "name": "ERC20InsufficientBalance",
      "type": "error"
    },
    {
      "inputs": [
        {
          "internalType": "address",
          "name": "approver",
          "type": "address"
        }
      ],
      "name": "ERC20InvalidApprover",
      "type": "error"
    },
    {
      "inputs": [
        {
          "internalType": "address",
          "name": "receiver",
          "type": "address"
        }
      ],
      "name": "ERC20InvalidReceiver",
      "type": "error"
    },
    {
      "inputs": [
        {
          "internalType": "address",
          "name": "sender",
          "type": "address"
        }
      ],
      "name": "ERC20InvalidSender",
      "type": "error"
    },
    {
      "inputs": [
        {
          "internalType": "address",
          "name": "spender",
          "type": "address"
        }
      ],
      "name": "ERC20InvalidSpender",
      "type": "error"
    },
    {
      "inputs": [
        {
          "internalType": "uint256",
          "name": "timepoint",
          "type": "uint256"
        },
        {
          "internalType": "uint48",
          "name": "clock",
          "type": "uint48"
        }
      ],
      "name": "ERC5805FutureLookup",
      "type": "error"
    },
    {
      "inputs": [],
      "name": "ERC6372InconsistentClock",
      "type": "error"
    },
    {
      "inputs": [
        {
          "internalType": "address",
          "name": "account",
          "type": "address"
        },
        {
          "internalType": "uint256",
          "name": "currentNonce",
          "type": "uint256"
        }
      ],
      "name": "InvalidAccountNonce",
      "type": "error"
    },
    {
      "inputs": [],
      "name": "InvalidShortString",
      "type": "error"
    },
    {
      "inputs": [
        {
          "internalType": "uint8",
          "name": "bits",
          "type": "uint8"
        },
        {
          "internalType": "uint256",
          "name": "value",
          "type": "uint256"
        }
      ],
      "name": "SafeCastOverflowedUintDowncast",
      "type": "error"
    },
    {
      "inputs": [
        {
          "internalType": "string",
          "name": "str",
          "type": "string"
        }
      ],
      "name": "StringTooLong",
      "type": "error"
    },
    {
      "inputs": [
        {
          "internalType": "uint256",
          "name": "expiry",
          "type": "uint256"
        }
      ],
      "name": "VotesExpiredSignature",
      "type": "error"
    },
    {
      "anonymous": false,
      "inputs": [
        {
          "indexed": true,
          "internalType": "address",
          "name": "owner",
          "type": "address"
        },
        {
          "indexed": true,
          "internalType": "address",
          "name": "spender",
          "type": "address"
        },
        {
          "indexed": false,
          "internalType": "uint256",
          "name": "value",
          "type": "uint256"
        }
      ],
      "name": "Approval",
      "type": "event"
    },
    {
      "anonymous": false,
      "inputs": [
        {
          "indexed": true,
          "internalType": "address",
          "name": "delegator",
          "type": "address"
        },
        {
          "indexed": true,
          "internalType": "address",
          "name": "fromDelegate",
          "type": "address"
        },
        {
          "indexed": true,
          "internalType": "address",
          "name": "toDelegate",
          "type": "address"
        }
      ],
      "name": "DelegateChanged",
      "type": "event"
    },
    {
      "anonymous": false,
      "inputs": [
        {
          "indexed": true,
          "internalType": "address",
          "name": "delegate",
          "type": "address"
        },
        {
          "indexed": false,
          "internalType": "uint256",
          "name": "previousVotes",
          "type": "uint256"
        },
        {
          "indexed": false,
          "internalType": "uint256",
          "name": "newVotes",
          "type": "uint256"
        }
      ],
      "name": "DelegateVotesChanged",
      "type": "event"
    },
    {
      "anonymous": false,
      "inputs": [],
      "name": "EIP712DomainChanged",
      "type": "event"
    },
    {
      "anonymous": false,
      "inputs": [
        {
          "indexed": true,
          "internalType": "address",
          "name": "from",
          "type": "address"
        },
        {
          "indexed": true,
          "internalType": "address",
          "name": "to",
          "type": "address"
        },
        {
          "indexed": false,
          "internalType": "uint256",
          "name": "value",
          "type": "uint256"
        }
      ],
      "name": "Transfer",
      "type": "event"
    },
    {
      "inputs": [],
      "name": "CLOCK_MODE",
      "outputs": [
        {
          "internalType": "string",
          "name": "",
          "type": "string"
        }
      ],
      "stateMutability": "view",
      "type": "function"
    },
    {
      "inputs": [
        {
          "internalType": "address",
          "name": "owner",
          "type": "address"
        },
        {
          "internalType": "address",
          "name": "spender",
          "type": "address"
        }
      ],
      "name": "allowance",
      "outputs": [
        {
          "internalType": "uint256",
          "name": "",
          "type": "uint256"
        }
      ],
      "stateMutability": "view",
      "type": "function"
    },
    {
      "inputs": [
        {
          "internalType": "address",
          "name": "spender",
          "type": "address"
        },
        {
          "internalType": "uint256",
          "name": "value",
          "type": "uint256"
        }
      ],
      "name": "approve",
      "outputs": [
        {
          "internalType": "bool",
          "name": "",
          "type": "bool"
        }
      ],
      "stateMutability": "nonpayable",
      "type": "function"
    },
    {
      "inputs": [
        {
          "internalType": "address",
          "name": "account",
          "type": "address"
        }
      ],
      "name": "balanceOf",
      "outputs": [
        {
          "internalType": "uint256",
          "name": "",
          "type": "uint256"
        }
      ],
      "stateMutability": "view",
      "type": "function"
    },
    {
      "inputs": [
        {
          "internalType": "address",
          "name": "account",
          "type": "address"
        },
        {
          "internalType": "uint32",
          "name": "pos",
          "type": "uint32"
        }
      ],
      "name": "checkpoints",
      "outputs": [
        {
          "components": [
            {
              "internalType": "uint48",
              "name": "_key",
              "type": "uint48"
            },
            {
              "internalType": "uint208",
              "name": "_value",
              "type": "uint208"
            }
          ],
          "internalType": "struct Checkpoints.Checkpoint208",
          "name": "",
          "type": "tuple"
        }
      ],
      "stateMutability": "view",
      "type": "function"
    },
    {
      "inputs": [],
      "name": "clock",
      "outputs": [
        {
          "internalType": "uint48",
          "name": "",
          "type": "uint48"
        }
      ],
      "stateMutability": "view",
      "type": "function"
    },
    {
      "inputs": [],
      "name": "decimals",
      "outputs": [
        {
          "internalType": "uint8",
          "name": "",
          "type": "uint8"
        }
      ],
      "stateMutability": "view",
      "type": "function"
    },
    {
      "inputs": [
        {
          "internalType": "address",
          "name": "delegatee",
          "type": "address"
        }
      ],
      "name": "delegate",
      "outputs": [],
      "stateMutability": "nonpayable",
      "type": "function"
    },
    {
      "inputs": [
        {
          "internalType": "address",
          "name": "delegatee",
          "type": "address"
        },
        {
          "internalType": "uint256",
          "name": "nonce",
          "type": "uint256"
        },
        {
          "internalType": "uint256",
          "name": "expiry",
          "type": "uint256"
        },
        {
          "internalType": "uint8",
          "name": "v",
          "type": "uint8"
        },
        {
          "internalType": "bytes32",
          "name": "r",
          "type": "bytes32"
        },
        {
          "internalType": "bytes32",
          "name": "s",
          "type": "bytes32"
        }
      ],
      "name": "delegateBySig",
      "outputs": [],
      "stateMutability": "nonpayable",
      "type": "function"
    },
    {
      "inputs": [
        {
          "internalType": "address",
          "name": "account",
          "type": "address"
        }
      ],
      "name": "delegates",
      "outputs": [
        {
          "internalType": "address",
          "name": "",
          "type": "address"
        }
      ],
      "stateMutability": "view",
      "type": "function"
    },
    {
      "inputs": [],
      "name": "eip712Domain",
      "outputs": [
        {
          "internalType": "bytes1",
          "name": "fields",
          "type": "bytes1"
        },
        {
          "internalType": "string",
          "name": "name",
          "type": "string"
        },
        {
          "internalType": "string",
          "name": "version",
          "type": "string"
        },
        {
          "internalType": "uint256",
          "name": "chainId",
          "type": "uint256"
        },
        {
          "internalType": "address",
          "name": "verifyingContract",
          "type": "address"
        },
        {
          "internalType": "bytes32",
          "name": "salt",
          "type": "bytes32"
        },
        {
          "internalType": "uint256[]",
          "name": "extensions",
          "type": "uint256[]"
        }
      ],
      "stateMutability": "view",
      "type": "function"
    },
    {
      "inputs": [
        {
          "internalType": "uint256",
          "name": "timepoint",
          "type": "uint256"
        }
      ],
      "name": "getPastTotalSupply",
      "outputs": [
        {
          "internalType": "uint256",
          "name": "",
          "type": "uint256"
        }
      ],
      "stateMutability": "view",
      "type": "function"
    },
    {
      "inputs": [
        {
          "internalType": "address",
          "name": "account",
          "type": "address"
        },
        {
          "internalType": "uint256",
          "name": "timepoint",
          "type": "uint256"
        }
      ],
      "name": "getPastVotes",
      "outputs": [
        {
          "internalType": "uint256",
          "name": "",
          "type": "uint256"
        }
      ],
      "stateMutability": "view",
      "type": "function"
    },
    {
      "inputs": [
        {
          "internalType": "address",
          "name": "account",
          "type": "address"
        }
      ],
      "name": "getVotes",
      "outputs": [
        {
          "internalType": "uint256",
          "name": "",
          "type": "uint256"
        }
      ],
      "stateMutability": "view",
      "type": "function"
    },
    {
      "inputs": [],
      "name": "name",
      "outputs": [
        {
          "internalType": "string",
          "name": "",
          "type": "string"
        }
      ],
      "stateMutability": "view",
      "type": "function"
    },
    {
      "inputs": [
        {
          "internalType": "address",
          "name": "owner",
          "type": "address"
        }
      ],
      "name": "nonces",
      "outputs": [
        {
          "internalType": "uint256",
          "name": "",
          "type": "uint256"
        }
      ],
      "stateMutability": "view",
      "type": "function"
    },
    {
      "inputs": [
        {
          "internalType": "address",
          "name": "account",
          "type": "address"
        }
      ],
      "name": "numCheckpoints",
      "outputs": [
        {
          "internalType": "uint32",
          "name": "",
          "type": "uint32"
        }
      ],
      "stateMutability": "view",
      "type": "function"
    },
    {
      "inputs": [],
      "name": "symbol",
      "outputs": [
        {
          "internalType": "string",
          "name": "",
          "type": "string"
        }
      ],
      "stateMutability": "view",
      "type": "function"
    },
    {
      "inputs": [],
      "name": "totalSupply",
      "outputs": [
        {
          "internalType": "uint256",
          "name": "",
          "type": "uint256"
        }
      ],
      "stateMutability": "view",
      "type": "function"
    },
    {
      "inputs": [
        {
          "internalType": "address",
          "name": "to",
          "type": "address"
        },
        {
          "internalType": "uint256",
          "name": "value",
          "type": "uint256"
        }
      ],
      "name": "transfer",
      "outputs": [
        {
          "internalType": "bool",
          "name": "",
          "type": "bool"
        }
      ],
      "stateMutability": "nonpayable",
      "type": "function"
    },
    {
      "inputs": [
        {
          "internalType": "address",
          "name": "from",
          "type": "address"
        },
        {
          "internalType": "address",
          "name": "to",
          "type": "address"
        },
        {
          "internalType": "uint256",
          "name": "value",
          "type": "uint256"
        }
      ],
      "name": "transferFrom",
      "outputs": [
        {
          "internalType": "bool",
          "name": "",
          "type": "bool"
        }
      ],
      "stateMutability": "nonpayable",
      "type": "function"
    }
  ],
  "bytecode": "0x6101606040523480156200001257600080fd5b5060405162004e2538038062004e258339818101604052810190620000389190620010ac565b6040518060400160405280601481526020017f44414f20476f7665726e616e636520546f6b656e0000000000000000000000008152506040518060400160405280600181526020017f31000000000000000000000000000000000000000000000000000000000000008152506040518060400160405280601481526020017f44414f20476f7665726e616e636520546f6b656e0000000000000000000000008152506040518060400160405280600481526020017f44474f560000000000000000000000000000000000000000000000000000000081525081600390816200012191906200134e565b5080600490816200013391906200134e565b5050506200014c600583620001ff60201b90919060201c565b61012081815250506200016a600682620001ff60201b90919060201c565b6101408181525050818051906020012060e08181525050808051906020012061010081815250504660a08181525050620001a96200025760201b60201c565b608081815250503073ffffffffffffffffffffffffffffffffffffffff1660c08173ffffffffffffffffffffffffffffffffffffffff16815250505050620001f83382620002b460201b60201c565b506200195e565b600060208351101562000225576200021d836200034160201b60201c565b905062000251565b826200023783620003ae60201b60201c565b60000190816200024891906200134e565b5060ff60001b90505b92915050565b60007f8b73c3c69bb8fe3d512ecc4cf759cc79239f7b179b0ffacaa9a75d522b39400f60e05161010051463060405160200162000299959493929190620014a6565b60405160208183030381529060405280519060200120905090565b600073ffffffffffffffffffffffffffffffffffffffff168273ffffffffffffffffffffffffffffffffffffffff1603620003295760006040517fec442f0500000000000000000000000000000000000000000000000000000000815260040162000320919062001503565b60405180910390fd5b6200033d60008383620003b860201b60201c565b5050565b600080829050601f815111156200039157826040517f305a27a9000000000000000000000000000000000000000000000000000000008152600401620003889190620015af565b60405180910390fd5b8051816200039f9062001605565b60001c1760001b915050919050565b6000819050919050565b620003cb838383620003d060201b60201c565b505050565b620003e3838383620004a560201b60201c565b600073ffffffffffffffffffffffffffffffffffffffff168373ffffffffffffffffffffffffffffffffffffffff16036200048d5760006200042a620006d560201b60201c565b905060006200043e620006df60201b60201c565b9050808211156200048a5781816040517f1cb15d260000000000000000000000000000000000000000000000000000000081526004016200048192919062001675565b60405180910390fd5b50505b620004a08383836200070360201b60201c565b505050565b600073ffffffffffffffffffffffffffffffffffffffff168373ffffffffffffffffffffffffffffffffffffffff1603620004fb578060026000828254620004ee9190620016d1565b92505081905550620005d1565b60008060008573ffffffffffffffffffffffffffffffffffffffff1673ffffffffffffffffffffffffffffffffffffffff168152602001908152602001600020549050818110156200058a578381836040517fe450d38c00000000000000000000000000000000000000000000000000000000815260040162000581939291906200170c565b60405180910390fd5b8181036000808673ffffffffffffffffffffffffffffffffffffffff1673ffffffffffffffffffffffffffffffffffffffff16815260200190815260200160002081905550505b600073ffffffffffffffffffffffffffffffffffffffff168273ffffffffffffffffffffffffffffffffffffffff16036200061c578060026000828254039250508190555062000669565b806000808473ffffffffffffffffffffffffffffffffffffffff1673ffffffffffffffffffffffffffffffffffffffff168152602001908152602001600020600082825401925050819055505b8173ffffffffffffffffffffffffffffffffffffffff168373ffffffffffffffffffffffffffffffffffffffff167fddf252ad1be2c89b69c2b068fc378daa952ba7f163c4a11628f55a4df523b3ef83604051620006c8919062001749565b60405180910390a3505050565b6000600254905090565b600079ffffffffffffffffffffffffffffffffffffffffffffffffffff8016905090565b600073ffffffffffffffffffffffffffffffffffffffff168373ffffffffffffffffffffffffffffffffffffffff16036200076a5762000767600a6200080960201b62000b3e176200075b846200082160201b60201c565b6200089260201b60201c565b50505b600073ffffffffffffffffffffffffffffffffffffffff168273ffffffffffffffffffffffffffffffffffffffff1603620007d157620007ce600a620008e260201b62000b5417620007c2846200082160201b60201c565b6200089260201b60201c565b50505b62000804620007e684620008fa60201b60201c565b620007f784620008fa60201b60201c565b836200096360201b60201c565b505050565b600081836200081991906200178c565b905092915050565b600079ffffffffffffffffffffffffffffffffffffffffffffffffffff80168211156200088a5760d0826040517f6dfcc6500000000000000000000000000000000000000000000000000000000081526004016200088192919062001831565b60405180910390fd5b819050919050565b600080620008d6620008a962000c1660201b60201c565b620008c5620008be8862000c2d60201b60201c565b868860201c565b8762000ca160201b9092919060201c565b91509150935093915050565b60008183620008f291906200185e565b905092915050565b6000600860008373ffffffffffffffffffffffffffffffffffffffff1673ffffffffffffffffffffffffffffffffffffffff16815260200190815260200160002060009054906101000a900473ffffffffffffffffffffffffffffffffffffffff169050919050565b8173ffffffffffffffffffffffffffffffffffffffff168373ffffffffffffffffffffffffffffffffffffffff1614158015620009a05750600081115b1562000c1157600073ffffffffffffffffffffffffffffffffffffffff168373ffffffffffffffffffffffffffffffffffffffff161462000adb5760008062000a4a600960008773ffffffffffffffffffffffffffffffffffffffff1673ffffffffffffffffffffffffffffffffffffffff168152602001908152602001600020620008e260201b62000b541762000a3e866200082160201b60201c565b6200089260201b60201c565b79ffffffffffffffffffffffffffffffffffffffffffffffffffff16915079ffffffffffffffffffffffffffffffffffffffffffffffffffff1691508473ffffffffffffffffffffffffffffffffffffffff167fdec2bacdd2f05b59de34da9b523dff8be42e5e38e818c82fdb0bae774387a724838360405162000ad092919062001675565b60405180910390a250505b600073ffffffffffffffffffffffffffffffffffffffff168273ffffffffffffffffffffffffffffffffffffffff161462000c105760008062000b7f600960008673ffffffffffffffffffffffffffffffffffffffff1673ffffffffffffffffffffffffffffffffffffffff1681526020019081526020016000206200080960201b62000b3e1762000b73866200082160201b60201c565b6200089260201b60201c565b79ffffffffffffffffffffffffffffffffffffffffffffffffffff16915079ffffffffffffffffffffffffffffffffffffffffffffffffffff1691508373ffffffffffffffffffffffffffffffffffffffff167fdec2bacdd2f05b59de34da9b523dff8be42e5e38e818c82fdb0bae774387a724838360405162000c0592919062001675565b60405180910390a250505b5b505050565b600062000c2862000cc660201b60201c565b905090565b600080826000018054905090506000811462000c965762000c668360000160018362000c5a9190620018b3565b62000cde60201b60201c565b60000160069054906101000a900479ffffffffffffffffffffffffffffffffffffffffffffffffffff1662000c99565b60005b915050919050565b60008062000cba85600001858562000cf360201b60201c565b91509150935093915050565b600062000cd9436200100f60201b60201c565b905090565b60008260005281602060002001905092915050565b600080600085805490509050600081111562000f1f57600062000d2b8760018462000d1f9190620018b3565b62000cde60201b60201c565b905060008160000160009054906101000a900465ffffffffffff16905060008260000160069054906101000a900479ffffffffffffffffffffffffffffffffffffffffffffffffffff1690508765ffffffffffff168265ffffffffffff16111562000dc2576040517f2520601d00000000000000000000000000000000000000000000000000000000815260040160405180910390fd5b8765ffffffffffff168265ffffffffffff160362000e2f57868360000160066101000a81548179ffffffffffffffffffffffffffffffffffffffffffffffffffff021916908379ffffffffffffffffffffffffffffffffffffffffffffffffffff16021790555062000f0f565b8860405180604001604052808a65ffffffffffff1681526020018979ffffffffffffffffffffffffffffffffffffffffffffffffffff168152509080600181540180825580915050600190039060005260206000200160009091909190915060008201518160000160006101000a81548165ffffffffffff021916908365ffffffffffff16021790555060208201518160000160066101000a81548179ffffffffffffffffffffffffffffffffffffffffffffffffffff021916908379ffffffffffffffffffffffffffffffffffffffffffffffffffff16021790555050505b8087955095505050505062001007565b8560405180604001604052808765ffffffffffff1681526020018679ffffffffffffffffffffffffffffffffffffffffffffffffffff168152509080600181540180825580915050600190039060005260206000200160009091909190915060008201518160000160006101000a81548165ffffffffffff021916908365ffffffffffff16021790555060208201518160000160066101000a81548179ffffffffffffffffffffffffffffffffffffffffffffffffffff021916908379ffffffffffffffffffffffffffffffffffffffffffffffffffff160217905550505060008492509250505b935093915050565b600065ffffffffffff801682111562001064576030826040517f6dfcc6500000000000000000000000000000000000000000000000000000000081526004016200105b92919062001931565b60405180910390fd5b819050919050565b600080fd5b6000819050919050565b620010868162001071565b81146200109257600080fd5b50565b600081519050620010a6816200107b565b92915050565b600060208284031215620010c557620010c46200106c565b5b6000620010d58482850162001095565b91505092915050565b600081519050919050565b7f4e487b7100000000000000000000000000000000000000000000000000000000600052604160045260246000fd5b7f4e487b7100000000000000000000000000000000000000000000000000000000600052602260045260246000fd5b600060028204905060018216806200116057607f821691505b60208210810362001176576200117562001118565b5b50919050565b60008190508160005260206000209050919050565b60006020601f8301049050919050565b600082821b905092915050565b600060088302620011e07fffffffffffffffffffffffffffffffffffffffffffffffffffffffffffffffff82620011a1565b620011ec8683620011a1565b95508019841693508086168417925050509392505050565b6000819050919050565b60006200122f62001229620012238462001071565b62001204565b62001071565b9050919050565b6000819050919050565b6200124b836200120e565b620012636200125a8262001236565b848454620011ae565b825550505050565b600090565b6200127a6200126b565b6200128781848462001240565b505050565b5b81811015620012af57620012a360008262001270565b6001810190506200128d565b5050565b601f821115620012fe57620012c8816200117c565b620012d38462001191565b81016020851015620012e3578190505b620012fb620012f28562001191565b8301826200128c565b50505b505050565b600082821c905092915050565b6000620013236000198460080262001303565b1980831691505092915050565b60006200133e838362001310565b9150826002028217905092915050565b6200135982620010de565b67ffffffffffffffff811115620013755762001374620010e9565b5b62001381825462001147565b6200138e828285620012b3565b600060209050601f831160018114620013c65760008415620013b1578287015190505b620013bd858262001330565b8655506200142d565b601f198416620013d6866200117c565b60005b828110156200140057848901518255600182019150602085019450602081019050620013d9565b868310156200142057848901516200141c601f89168262001310565b8355505b6001600288020188555050505b505050505050565b6000819050919050565b6200144a8162001435565b82525050565b6200145b8162001071565b82525050565b600073ffffffffffffffffffffffffffffffffffffffff82169050919050565b60006200148e8262001461565b9050919050565b620014a08162001481565b82525050565b600060a082019050620014bd60008301886200143f565b620014cc60208301876200143f565b620014db60408301866200143f565b620014ea606083018562001450565b620014f9608083018462001495565b9695505050505050565b60006020820190506200151a600083018462001495565b92915050565b600082825260208201905092915050565b60005b838110156200155157808201518184015260208101905062001534565b60008484015250505050565b6000601f19601f8301169050919050565b60006200157b82620010de565b62001587818562001520565b93506200159981856020860162001531565b620015a4816200155d565b840191505092915050565b60006020820190508181036000830152620015cb81846200156e565b905092915050565b600081519050919050565b6000819050602082019050919050565b6000620015fc825162001435565b80915050919050565b60006200161282620015d3565b826200161e84620015de565b90506200162b81620015ee565b925060208210156200166e57620016697fffffffffffffffffffffffffffffffffffffffffffffffffffffffffffffffff83602003600802620011a1565b831692505b5050919050565b60006040820190506200168c600083018562001450565b6200169b602083018462001450565b9392505050565b7f4e487b7100000000000000000000000000000000000000000000000000000000600052601160045260246000fd5b6000620016de8262001071565b9150620016eb8362001071565b9250828201905080821115620017065762001705620016a2565b5b92915050565b600060608201905062001723600083018662001495565b62001732602083018562001450565b62001741604083018462001450565b949350505050565b600060208201905062001760600083018462001450565b92915050565b600079ffffffffffffffffffffffffffffffffffffffffffffffffffff82169050919050565b6000620017998262001766565b9150620017a68362001766565b9250828201905079ffffffffffffffffffffffffffffffffffffffffffffffffffff811115620017db57620017da620016a2565b5b92915050565b6000819050919050565b600060ff82169050919050565b600062001819620018136200180d84620017e1565b62001204565b620017eb565b9050919050565b6200182b81620017f8565b82525050565b600060408201905062001848600083018562001820565b62001857602083018462001450565b9392505050565b60006200186b8262001766565b9150620018788362001766565b9250828203905079ffffffffffffffffffffffffffffffffffffffffffffffffffff811115620018ad57620018ac620016a2565b5b92915050565b6000620018c08262001071565b9150620018cd8362001071565b9250828203905081811115620018e857620018e7620016a2565b5b92915050565b6000819050919050565b600062001919620019136200190d84620018ee565b62001204565b620017eb565b9050919050565b6200192b81620018f8565b82525050565b600060408201905062001948600083018562001920565b62001957602083018462001450565b9392505050565b60805160a05160c05160e05161010051610120516101405161346c620019b9600039600061103301526000610ff8015260006120a701526000612086015260006119e401526000611a3a01526000611a63015261346c6000f3fe608060405234801561001057600080fd5b50600436106101375760003560e01c806370a08231116100b857806395d89b411161007c57806395d89b41146103925780639ab24eb0146103b0578063a9059cbb146103e0578063c3cda52014610410578063dd62ed3e1461042c578063f1127ed81461045c57610137565b806370a08231146102c05780637ecebe00146102f057806384b0196e146103205780638e539e8c1461034457806391ddadf41461037457610137565b80633a46b1a8116100ff5780633a46b1a8146101f65780634bf5d7e914610226578063587cde1e146102445780635c19a95c146102745780636fcfff451461029057610137565b806306fdde031461013c578063095ea7b31461015a57806318160ddd1461018a57806323b872dd146101a8578063313ce567146101d8575b600080fd5b61014461048c565b6040516101519190612842565b60405180910390f35b610174600480360381019061016f91906128fd565b61051e565b6040516101819190612958565b60405180910390f35b610192610541565b60405161019f9190612982565b60405180910390f35b6101c260048036038101906101bd919061299d565b61054b565b6040516101cf9190612958565b60405180910390f35b6101e061057a565b6040516101ed9190612a0c565b60405180910390f35b610210600480360381019061020b91906128fd565b610583565b60405161021d9190612982565b60405180910390f35b61022e610602565b60405161023b9190612842565b60405180910390f35b61025e60048036038101906102599190612a27565b610696565b60405161026b9190612a63565b60405180910390f35b61028e60048036038101906102899190612a27565b6106ff565b005b6102aa60048036038101906102a59190612a27565b610719565b6040516102b79190612a9d565b60405180910390f35b6102da60048036038101906102d59190612a27565b61072b565b6040516102e79190612982565b60405180910390f35b61030a60048036038101906103059190612a27565b610773565b6040516103179190612982565b60405180910390f35b6103286107bc565b60405161033b9796959493929190612bca565b60405180910390f35b61035e60048036038101906103599190612c4e565b610866565b60405161036b9190612982565b60405180910390f35b61037c6108a7565b6040516103899190612c9c565b60405180910390f35b61039a6108b6565b6040516103a79190612842565b60405180910390f35b6103ca60048036038101906103c59190612a27565b610948565b6040516103d79190612982565b60405180910390f35b6103fa60048036038101906103f591906128fd565b6109b4565b6040516104079190612958565b60405180910390f35b61042a60048036038101906104259190612d0f565b6109d7565b005b61044660048036038101906104419190612d9c565b610a9d565b6040516104539190612982565b60405180910390f35b61047660048036038101906104719190612e08565b610b24565b6040516104839190612ebb565b60405180910390f35b60606003805461049b90612f05565b80601f01602080910402602001604051908101604052809291908181526020018280546104c790612f05565b80156105145780601f106104e957610100808354040283529160200191610514565b820191906000526020600020905b8154815290600101906020018083116104f757829003601f168201915b5050505050905090565b600080610529610b6a565b9050610536818585610b72565b600191505092915050565b6000600254905090565b600080610556610b6a565b9050610563858285610b84565b61056e858585610c19565b60019150509392505050565b60006012905090565b60006105de61059183610d0d565b600960008673ffffffffffffffffffffffffffffffffffffffff1673ffffffffffffffffffffffffffffffffffffffff168152602001908152602001600020610d7990919063ffffffff16565b79ffffffffffffffffffffffffffffffffffffffffffffffffffff16905092915050565b606061060c610e73565b65ffffffffffff1661061c6108a7565b65ffffffffffff161461065b576040517f6ff0714000000000000000000000000000000000000000000000000000000000815260040160405180910390fd5b6040518060400160405280601d81526020017f6d6f64653d626c6f636b6e756d6265722666726f6d3d64656661756c74000000815250905090565b6000600860008373ffffffffffffffffffffffffffffffffffffffff1673ffffffffffffffffffffffffffffffffffffffff16815260200190815260200160002060009054906101000a900473ffffffffffffffffffffffffffffffffffffffff169050919050565b6000610709610b6a565b90506107158183610e83565b5050565b600061072482610f97565b9050919050565b60008060008373ffffffffffffffffffffffffffffffffffffffff1673ffffffffffffffffffffffffffffffffffffffff168152602001908152602001600020549050919050565b6000600760008373ffffffffffffffffffffffffffffffffffffffff1673ffffffffffffffffffffffffffffffffffffffff168152602001908152602001600020549050919050565b6000606080600080600060606107d0610fef565b6107d861102a565b46306000801b600067ffffffffffffffff8111156107f9576107f8612f36565b5b6040519080825280602002602001820160405280156108275781602001602082028036833780820191505090505b507f0f00000000000000000000000000000000000000000000000000000000000000959493929190965096509650965096509650965090919293949596565b600061088461087483610d0d565b600a610d7990919063ffffffff16565b79ffffffffffffffffffffffffffffffffffffffffffffffffffff169050919050565b60006108b1610e73565b905090565b6060600480546108c590612f05565b80601f01602080910402602001604051908101604052809291908181526020018280546108f190612f05565b801561093e5780601f106109135761010080835404028352916020019161093e565b820191906000526020600020905b81548152906001019060200180831161092157829003601f168201915b5050505050905090565b6000610991600960008473ffffffffffffffffffffffffffffffffffffffff1673ffffffffffffffffffffffffffffffffffffffff168152602001908152602001600020611065565b79ffffffffffffffffffffffffffffffffffffffffffffffffffff169050919050565b6000806109bf610b6a565b90506109cc818585610c19565b600191505092915050565b83421115610a1c57836040517f4683af0e000000000000000000000000000000000000000000000000000000008152600401610a139190612982565b60405180910390fd5b6000610a7e610a767fe48329057bfd03d55e49b547132e39cffd9c1820ad7b9d4c5307691425d15adf898989604051602001610a5b9493929190612f65565b604051602081830303815290604052805190602001206110cd565b8585856110e7565b9050610a8a8187611117565b610a948188610e83565b50505050505050565b6000600160008473ffffffffffffffffffffffffffffffffffffffff1673ffffffffffffffffffffffffffffffffffffffff16815260200190815260200160002060008373ffffffffffffffffffffffffffffffffffffffff1673ffffffffffffffffffffffffffffffffffffffff16815260200190815260200160002054905092915050565b610b2c612774565b610b36838361116f565b905092915050565b60008183610b4c9190612fd9565b905092915050565b60008183610b629190613027565b905092915050565b600033905090565b610b7f83838360016111d0565b505050565b6000610b908484610a9d565b90507fffffffffffffffffffffffffffffffffffffffffffffffffffffffffffffffff811015610c135781811015610c03578281836040517ffb8f41b2000000000000000000000000000000000000000000000000000000008152600401610bfa93929190613075565b60405180910390fd5b610c12848484840360006111d0565b5b50505050565b600073ffffffffffffffffffffffffffffffffffffffff168373ffffffffffffffffffffffffffffffffffffffff1603610c8b5760006040517f96c6fd1e000000000000000000000000000000000000000000000000000000008152600401610c829190612a63565b60405180910390fd5b600073ffffffffffffffffffffffffffffffffffffffff168273ffffffffffffffffffffffffffffffffffffffff1603610cfd5760006040517fec442f05000000000000000000000000000000000000000000000000000000008152600401610cf49190612a63565b60405180910390fd5b610d088383836113a7565b505050565b600080610d186108a7565b90508065ffffffffffff168310610d685782816040517fecd3f81e000000000000000000000000000000000000000000000000000000008152600401610d5f9291906130ac565b60405180910390fd5b610d71836113b7565b915050919050565b600080836000018054905090506000808290506005831115610e01576000610da084611411565b84610dab91906130d5565b9050610dba87600001826115ae565b60000160009054906101000a900465ffffffffffff1665ffffffffffff168665ffffffffffff161015610def57809150610dff565b600181610dfc9190613109565b92505b505b6000610e12876000018785856115c3565b905060008114610e6457610e3587600001600183610e3091906130d5565b6115ae565b60000160069054906101000a900479ffffffffffffffffffffffffffffffffffffffffffffffffffff16610e67565b60005b94505050505092915050565b6000610e7e436113b7565b905090565b6000610e8e83610696565b905081600860008573ffffffffffffffffffffffffffffffffffffffff1673ffffffffffffffffffffffffffffffffffffffff16815260200190815260200160002060006101000a81548173ffffffffffffffffffffffffffffffffffffffff021916908373ffffffffffffffffffffffffffffffffffffffff1602179055508173ffffffffffffffffffffffffffffffffffffffff168173ffffffffffffffffffffffffffffffffffffffff168473ffffffffffffffffffffffffffffffffffffffff167f3134e8a2e6d97e929a7e54011ea5485d7d196dd5f0ba4d4ef95803e8e3fc257f60405160405180910390a4610f928183610f8d8661163c565b61164e565b505050565b6000610fe8610fe3600960008573ffffffffffffffffffffffffffffffffffffffff1673ffffffffffffffffffffffffffffffffffffffff1681526020019081526020016000206118c7565b6118d8565b9050919050565b606061102560057f000000000000000000000000000000000000000000000000000000000000000061193090919063ffffffff16565b905090565b606061106060067f000000000000000000000000000000000000000000000000000000000000000061193090919063ffffffff16565b905090565b60008082600001805490509050600081146110c2576110938360000160018361108e91906130d5565b6115ae565b60000160069054906101000a900479ffffffffffffffffffffffffffffffffffffffffffffffffffff166110c5565b60005b915050919050565b60006110e06110da6119e0565b83611a97565b9050919050565b6000806000806110f988888888611ad8565b9250925092506111098282611bcc565b829350505050949350505050565b600061112283611d30565b905080821461116a5782816040517f752d88c000000000000000000000000000000000000000000000000000000000815260040161116192919061313d565b60405180910390fd5b505050565b611177612774565b6111c882600960008673ffffffffffffffffffffffffffffffffffffffff1673ffffffffffffffffffffffffffffffffffffffff168152602001908152602001600020611d8790919063ffffffff16565b905092915050565b600073ffffffffffffffffffffffffffffffffffffffff168473ffffffffffffffffffffffffffffffffffffffff16036112425760006040517fe602df050000000000000000000000000000000000000000000000000000000081526004016112399190612a63565b60405180910390fd5b600073ffffffffffffffffffffffffffffffffffffffff168373ffffffffffffffffffffffffffffffffffffffff16036112b45760006040517f94280d620000000000000000000000000000000000000000000000000000000081526004016112ab9190612a63565b60405180910390fd5b81600160008673ffffffffffffffffffffffffffffffffffffffff1673ffffffffffffffffffffffffffffffffffffffff16815260200190815260200160002060008573ffffffffffffffffffffffffffffffffffffffff1673ffffffffffffffffffffffffffffffffffffffff1681526020019081526020016000208190555080156113a1578273ffffffffffffffffffffffffffffffffffffffff168473ffffffffffffffffffffffffffffffffffffffff167f8c5be1e5ebec7d5bd14f71427d1e84f3dd0314c0f7b2291e5b200ac8c7c3b925846040516113989190612982565b60405180910390a35b50505050565b6113b2838383611e5c565b505050565b600065ffffffffffff8016821115611409576030826040517f6dfcc6500000000000000000000000000000000000000000000000000000000081526004016114009291906131ab565b60405180910390fd5b819050919050565b600060018211611423578190506115a9565b6000829050600060019050700100000000000000000000000000000000821061145557608082901c9150604081901b90505b68010000000000000000821061147457604082901c9150602081901b90505b640100000000821061148f57602082901c9150601081901b90505b6201000082106114a857601082901c9150600881901b90505b61010082106114c057600882901c9150600481901b90505b601082106114d757600482901c9150600281901b90505b600482106114e757600181901b90505b600181600302901c90506001818581611503576115026131d4565b5b048201901c9050600181858161151c5761151b6131d4565b5b048201901c90506001818581611535576115346131d4565b5b048201901c9050600181858161154e5761154d6131d4565b5b048201901c90506001818581611567576115666131d4565b5b048201901c905060018185816115805761157f6131d4565b5b048201901c90506115a281858161159a576115996131d4565b5b048211611f0d565b8103925050505b919050565b60008260005281602060002001905092915050565b60005b818310156116315760006115da8484611f19565b90508465ffffffffffff166115ef87836115ae565b60000160009054906101000a900465ffffffffffff1665ffffffffffff16111561161b5780925061162b565b6001816116289190613109565b93505b506115c6565b819050949350505050565b60006116478261072b565b9050919050565b8173ffffffffffffffffffffffffffffffffffffffff168373ffffffffffffffffffffffffffffffffffffffff161415801561168a5750600081115b156118c257600073ffffffffffffffffffffffffffffffffffffffff168373ffffffffffffffffffffffffffffffffffffffff16146117a857600080611719600960008773ffffffffffffffffffffffffffffffffffffffff1673ffffffffffffffffffffffffffffffffffffffff168152602001908152602001600020610b5461171486611f3f565b611fad565b79ffffffffffffffffffffffffffffffffffffffffffffffffffff16915079ffffffffffffffffffffffffffffffffffffffffffffffffffff1691508473ffffffffffffffffffffffffffffffffffffffff167fdec2bacdd2f05b59de34da9b523dff8be42e5e38e818c82fdb0bae774387a724838360405161179d929190613203565b60405180910390a250505b600073ffffffffffffffffffffffffffffffffffffffff168273ffffffffffffffffffffffffffffffffffffffff16146118c157600080611832600960008673ffffffffffffffffffffffffffffffffffffffff1673ffffffffffffffffffffffffffffffffffffffff168152602001908152602001600020610b3e61182d86611f3f565b611fad565b79ffffffffffffffffffffffffffffffffffffffffffffffffffff16915079ffffffffffffffffffffffffffffffffffffffffffffffffffff1691508373ffffffffffffffffffffffffffffffffffffffff167fdec2bacdd2f05b59de34da9b523dff8be42e5e38e818c82fdb0bae774387a72483836040516118b6929190613203565b60405180910390a250505b5b505050565b600081600001805490509050919050565b600063ffffffff8016821115611928576020826040517f6dfcc65000000000000000000000000000000000000000000000000000000000815260040161191f929190613267565b60405180910390fd5b819050919050565b606060ff60001b831461194d5761194683611fed565b90506119da565b81805461195990612f05565b80601f016020809104026020016040519081016040528092919081815260200182805461198590612f05565b80156119d25780601f106119a7576101008083540402835291602001916119d2565b820191906000526020600020905b8154815290600101906020018083116119b557829003601f168201915b505050505090505b92915050565b60007f000000000000000000000000000000000000000000000000000000000000000073ffffffffffffffffffffffffffffffffffffffff163073ffffffffffffffffffffffffffffffffffffffff16148015611a5c57507f000000000000000000000000000000000000000000000000000000000000000046145b15611a89577f00000000000000000000000000000000000000000000000000000000000000009050611a94565b611a91612061565b90505b90565b60006040517f190100000000000000000000000000000000000000000000000000000000000081528360028201528260228201526042812091505092915050565b60008060007f7fffffffffffffffffffffffffffffff5d576e7357a4501ddfe92f46681b20a08460001c1115611b18576000600385925092509250611bc2565b600060018888888860405160008152602001604052604051611b3d9493929190613290565b6020604051602081039080840390855afa158015611b5f573d6000803e3d6000fd5b505050602060405103519050600073ffffffffffffffffffffffffffffffffffffffff168173ffffffffffffffffffffffffffffffffffffffff1603611bb357600060016000801b93509350935050611bc2565b8060008060001b935093509350505b9450945094915050565b60006003811115611be057611bdf6132d5565b5b826003811115611bf357611bf26132d5565b5b0315611d2c5760016003811115611c0d57611c0c6132d5565b5b826003811115611c2057611c1f6132d5565b5b03611c57576040517ff645eedf00000000000000000000000000000000000000000000000000000000815260040160405180910390fd5b60026003811115611c6b57611c6a6132d5565b5b826003811115611c7e57611c7d6132d5565b5b03611cc3578060001c6040517ffce698f7000000000000000000000000000000000000000000000000000000008152600401611cba9190612982565b60405180910390fd5b600380811115611cd657611cd56132d5565b5b826003811115611ce957611ce86132d5565b5b03611d2b57806040517fd78bce0c000000000000000000000000000000000000000000000000000000008152600401611d229190613304565b60405180910390fd5b5b5050565b6000600760008373ffffffffffffffffffffffffffffffffffffffff1673ffffffffffffffffffffffffffffffffffffffff1681526020019081526020016000206000815480929190600101919050559050919050565b611d8f612774565b826000018263ffffffff1681548110611dab57611daa61331f565b5b906000526020600020016040518060400160405290816000820160009054906101000a900465ffffffffffff1665ffffffffffff1665ffffffffffff1681526020016000820160069054906101000a900479ffffffffffffffffffffffffffffffffffffffffffffffffffff1679ffffffffffffffffffffffffffffffffffffffffffffffffffff1679ffffffffffffffffffffffffffffffffffffffffffffffffffff1681525050905092915050565b611e678383836120f7565b600073ffffffffffffffffffffffffffffffffffffffff168373ffffffffffffffffffffffffffffffffffffffff1603611efd576000611ea5610541565b90506000611eb161231c565b905080821115611efa5781816040517f1cb15d26000000000000000000000000000000000000000000000000000000008152600401611ef1929190613203565b60405180910390fd5b50505b611f08838383612340565b505050565b60008115159050919050565b60006002828418611f2a919061334e565b828416611f379190613109565b905092915050565b600079ffffffffffffffffffffffffffffffffffffffffffffffffffff8016821115611fa55760d0826040517f6dfcc650000000000000000000000000000000000000000000000000000000008152600401611f9c9291906133ba565b60405180910390fd5b819050919050565b600080611fe1611fbb6108a7565b611fd1611fc788611065565b868863ffffffff16565b876123fa9092919063ffffffff16565b91509150935093915050565b60606000611ffa83612417565b90506000602067ffffffffffffffff81111561201957612018612f36565b5b6040519080825280601f01601f19166020018201604052801561204b5781602001600182028036833780820191505090505b5090508181528360208201528092505050919050565b60007f8b73c3c69bb8fe3d512ecc4cf759cc79239f7b179b0ffacaa9a75d522b39400f7f00000000000000000000000000000000000000000000000000000000000000007f000000000000000000000000000000000000000000000000000000000000000046306040516020016120dc9594939291906133e3565b60405160208183030381529060405280519060200120905090565b600073ffffffffffffffffffffffffffffffffffffffff168373ffffffffffffffffffffffffffffffffffffffff160361214957806002600082825461213d9190613109565b9250508190555061221c565b60008060008573ffffffffffffffffffffffffffffffffffffffff1673ffffffffffffffffffffffffffffffffffffffff168152602001908152602001600020549050818110156121d5578381836040517fe450d38c0000000000000000000000000000000000000000000000000000000081526004016121cc93929190613075565b60405180910390fd5b8181036000808673ffffffffffffffffffffffffffffffffffffffff1673ffffffffffffffffffffffffffffffffffffffff16815260200190815260200160002081905550505b600073ffffffffffffffffffffffffffffffffffffffff168273ffffffffffffffffffffffffffffffffffffffff160361226557806002600082825403925050819055506122b2565b806000808473ffffffffffffffffffffffffffffffffffffffff1673ffffffffffffffffffffffffffffffffffffffff168152602001908152602001600020600082825401925050819055505b8173ffffffffffffffffffffffffffffffffffffffff168373ffffffffffffffffffffffffffffffffffffffff167fddf252ad1be2c89b69c2b068fc378daa952ba7f163c4a11628f55a4df523b3ef8360405161230f9190612982565b60405180910390a3505050565b600079ffffffffffffffffffffffffffffffffffffffffffffffffffff8016905090565b600073ffffffffffffffffffffffffffffffffffffffff168373ffffffffffffffffffffffffffffffffffffffff160361238d5761238a600a610b3e61238584611f3f565b611fad565b50505b600073ffffffffffffffffffffffffffffffffffffffff168273ffffffffffffffffffffffffffffffffffffffff16036123da576123d7600a610b546123d284611f3f565b611fad565b50505b6123f56123e684610696565b6123ef84610696565b8361164e565b505050565b60008061240b856000018585612467565b91509150935093915050565b60008060ff8360001c169050601f81111561245e576040517fb3512b0c00000000000000000000000000000000000000000000000000000000815260040160405180910390fd5b80915050919050565b60008060008580549050905060008111156126845760006124948760018461248f91906130d5565b6115ae565b905060008160000160009054906101000a900465ffffffffffff16905060008260000160069054906101000a900479ffffffffffffffffffffffffffffffffffffffffffffffffffff1690508765ffffffffffff168265ffffffffffff16111561252a576040517f2520601d00000000000000000000000000000000000000000000000000000000815260040160405180910390fd5b8765ffffffffffff168265ffffffffffff160361259557868360000160066101000a81548179ffffffffffffffffffffffffffffffffffffffffffffffffffff021916908379ffffffffffffffffffffffffffffffffffffffffffffffffffff160217905550612675565b8860405180604001604052808a65ffffffffffff1681526020018979ffffffffffffffffffffffffffffffffffffffffffffffffffff168152509080600181540180825580915050600190039060005260206000200160009091909190915060008201518160000160006101000a81548165ffffffffffff021916908365ffffffffffff16021790555060208201518160000160066101000a81548179ffffffffffffffffffffffffffffffffffffffffffffffffffff021916908379ffffffffffffffffffffffffffffffffffffffffffffffffffff16021790555050505b8087955095505050505061276c565b8560405180604001604052808765ffffffffffff1681526020018679ffffffffffffffffffffffffffffffffffffffffffffffffffff168152509080600181540180825580915050600190039060005260206000200160009091909190915060008201518160000160006101000a81548165ffffffffffff021916908365ffffffffffff16021790555060208201518160000160066101000a81548179ffffffffffffffffffffffffffffffffffffffffffffffffffff021916908379ffffffffffffffffffffffffffffffffffffffffffffffffffff160217905550505060008492509250505b935093915050565b6040518060400160405280600065ffffffffffff168152602001600079ffffffffffffffffffffffffffffffffffffffffffffffffffff1681525090565b600081519050919050565b600082825260208201905092915050565b60005b838110156127ec5780820151818401526020810190506127d1565b60008484015250505050565b6000601f19601f8301169050919050565b6000612814826127b2565b61281e81856127bd565b935061282e8185602086016127ce565b612837816127f8565b840191505092915050565b6000602082019050818103600083015261285c8184612809565b905092915050565b600080fd5b600073ffffffffffffffffffffffffffffffffffffffff82169050919050565b600061289482612869565b9050919050565b6128a481612889565b81146128af57600080fd5b50565b6000813590506128c18161289b565b92915050565b6000819050919050565b6128da816128c7565b81146128e557600080fd5b50565b6000813590506128f7816128d1565b92915050565b6000806040838503121561291457612913612864565b5b6000612922858286016128b2565b9250506020612933858286016128e8565b9150509250929050565b60008115159050919050565b6129528161293d565b82525050565b600060208201905061296d6000830184612949565b92915050565b61297c816128c7565b82525050565b60006020820190506129976000830184612973565b92915050565b6000806000606084860312156129b6576129b5612864565b5b60006129c4868287016128b2565b93505060206129d5868287016128b2565b92505060406129e6868287016128e8565b9150509250925092565b600060ff82169050919050565b612a06816129f0565b82525050565b6000602082019050612a2160008301846129fd565b92915050565b600060208284031215612a3d57612a3c612864565b5b6000612a4b848285016128b2565b91505092915050565b612a5d81612889565b82525050565b6000602082019050612a786000830184612a54565b92915050565b600063ffffffff82169050919050565b612a9781612a7e565b82525050565b6000602082019050612ab26000830184612a8e565b92915050565b60007fff0000000000000000000000000000000000000000000000000000000000000082169050919050565b612aed81612ab8565b82525050565b6000819050919050565b612b0681612af3565b82525050565b600081519050919050565b600082825260208201905092915050565b6000819050602082019050919050565b612b41816128c7565b82525050565b6000612b538383612b38565b60208301905092915050565b6000602082019050919050565b6000612b7782612b0c565b612b818185612b17565b9350612b8c83612b28565b8060005b83811015612bbd578151612ba48882612b47565b9750612baf83612b5f565b925050600181019050612b90565b5085935050505092915050565b600060e082019050612bdf600083018a612ae4565b8181036020830152612bf18189612809565b90508181036040830152612c058188612809565b9050612c146060830187612973565b612c216080830186612a54565b612c2e60a0830185612afd565b81810360c0830152612c408184612b6c565b905098975050505050505050565b600060208284031215612c6457612c63612864565b5b6000612c72848285016128e8565b91505092915050565b600065ffffffffffff82169050919050565b612c9681612c7b565b82525050565b6000602082019050612cb16000830184612c8d565b92915050565b612cc0816129f0565b8114612ccb57600080fd5b50565b600081359050612cdd81612cb7565b92915050565b612cec81612af3565b8114612cf757600080fd5b50565b600081359050612d0981612ce3565b92915050565b60008060008060008060c08789031215612d2c57612d2b612864565b5b6000612d3a89828a016128b2565b9650506020612d4b89828a016128e8565b9550506040612d5c89828a016128e8565b9450506060612d6d89828a01612cce565b9350506080612d7e89828a01612cfa565b92505060a0612d8f89828a01612cfa565b9150509295509295509295565b60008060408385031215612db357612db2612864565b5b6000612dc1858286016128b2565b9250506020612dd2858286016128b2565b9150509250929050565b612de581612a7e565b8114612df057600080fd5b50565b600081359050612e0281612ddc565b92915050565b60008060408385031215612e1f57612e1e612864565b5b6000612e2d858286016128b2565b9250506020612e3e85828601612df3565b9150509250929050565b612e5181612c7b565b82525050565b600079ffffffffffffffffffffffffffffffffffffffffffffffffffff82169050919050565b612e8681612e57565b82525050565b604082016000820151612ea26000850182612e48565b506020820151612eb56020850182612e7d565b50505050565b6000604082019050612ed06000830184612e8c565b92915050565b7f4e487b7100000000000000000000000000000000000000000000000000000000600052602260045260246000fd5b60006002820490506001821680612f1d57607f821691505b602082108103612f3057612f2f612ed6565b5b50919050565b7f4e487b7100000000000000000000000000000000000000000000000000000000600052604160045260246000fd5b6000608082019050612f7a6000830187612afd565b612f876020830186612a54565b612f946040830185612973565b612fa16060830184612973565b95945050505050565b7f4e487b7100000000000000000000000000000000000000000000000000000000600052601160045260246000fd5b6000612fe482612e57565b9150612fef83612e57565b9250828201905079ffffffffffffffffffffffffffffffffffffffffffffffffffff81111561302157613020612faa565b5b92915050565b600061303282612e57565b915061303d83612e57565b9250828203905079ffffffffffffffffffffffffffffffffffffffffffffffffffff81111561306f5761306e612faa565b5b92915050565b600060608201905061308a6000830186612a54565b6130976020830185612973565b6130a46040830184612973565b949350505050565b60006040820190506130c16000830185612973565b6130ce6020830184612c8d565b9392505050565b60006130e0826128c7565b91506130eb836128c7565b925082820390508181111561310357613102612faa565b5b92915050565b6000613114826128c7565b915061311f836128c7565b925082820190508082111561313757613136612faa565b5b92915050565b60006040820190506131526000830185612a54565b61315f6020830184612973565b9392505050565b6000819050919050565b6000819050919050565b600061319561319061318b84613166565b613170565b6129f0565b9050919050565b6131a58161317a565b82525050565b60006040820190506131c0600083018561319c565b6131cd6020830184612973565b9392505050565b7f4e487b7100000000000000000000000000000000000000000000000000000000600052601260045260246000fd5b60006040820190506132186000830185612973565b6132256020830184612973565b9392505050565b6000819050919050565b600061325161324c6132478461322c565b613170565b6129f0565b9050919050565b61326181613236565b82525050565b600060408201905061327c6000830185613258565b6132896020830184612973565b9392505050565b60006080820190506132a56000830187612afd565b6132b260208301866129fd565b6132bf6040830185612afd565b6132cc6060830184612afd565b95945050505050565b7f4e487b7100000000000000000000000000000000000000000000000000000000600052602160045260246000fd5b60006020820190506133196000830184612afd565b92915050565b7f4e487b7100000000000000000000000000000000000000000000000000000000600052603260045260246000fd5b6000613359826128c7565b9150613364836128c7565b925082613374576133736131d4565b5b828204905092915050565b6000819050919050565b60006133a461339f61339a8461337f565b613170565b6129f0565b9050919050565b6133b481613389565b82525050565b60006040820190506133cf60008301856133ab565b6133dc6020830184612973565b9392505050565b600060a0820190506133f86000830188612afd565b6134056020830187612afd565b6134126040830186612afd565b61341f6060830185612973565b61342c6080830184612a54565b969550505050505056fea2646970667358221220327669a729fea52a12193216a2f2e72495565e4fbb553a4edd8aaad925ec65bb64736f6c63430008140033",
  "linkReferences": {},
  "deployedLinkReferences": {}
}