{
  "_format": "hh-sol-artifact-1",
  "contractName": "DAOGovernance",
  "sourceName": "contracts/DAOGovernance.sol",
  "abi": [
    {
      "inputs": [
        {
          "internalType": "address",
          "name": "_governanceToken",
          "type": "address"
        }
      ],
      "stateMutability": "nonpayable",
      "type": "constructor"
    },
    {
      "inputs": [
        {
          "internalType": "address",
          "name": "owner",
          "type": "address"
        }
      ],
      "name": "OwnableInvalidOwner",
      "type": "error"
    },
    {
      "inputs": [
        {
          "internalType": "address",
          "name": "account",
          "type": "address"
        }
      ],
      "name": "OwnableUnauthorizedAccount",
      "type": "error"
    },
    {
      "anonymous": false,
      "inputs": [
        {
          "indexed": true,
          "internalType": "address",
          "name": "previousOwner",
          "type": "address"
        },
        {
          "indexed": true,
          "internalType": "address",
          "name": "newOwner",
          "type": "address"
        }
      ],
      "name": "OwnershipTransferred",
      "type": "event"
    },
    {
      "anonymous": false,
      "inputs": [
        {
          "indexed": true,
          "internalType": "uint256",
          "name": "proposalId",
          "type": "uint256"
        },
        {
          "indexed": false,
          "internalType": "address",
          "name": "proposer",
          "type": "address"
        },
        {
          "indexed": false,
          "internalType": "string",
          "name": "description",
          "type": "string"
        }
      ],
      "name": "ProposalCreated",
      "type": "event"
    },
    {
      "anonymous": false,
      "inputs": [
        {
          "indexed": true,
          "internalType": "uint256",
          "name": "proposalId",
          "type": "uint256"
        }
      ],
      "name": "ProposalExecuted",
      "type": "event"
    },
    {
      "anonymous": false,
      "inputs": [
        {
          "indexed": true,
          "internalType": "uint256",
          "name": "proposalId",
          "type": "uint256"
        },
        {
          "indexed": false,
          "internalType": "address",
          "name": "voter",
          "type": "address"
        },
        {
          "indexed": false,
          "internalType": "bool",
          "name": "support",
          "type": "bool"
        },
        {
          "indexed": false,
          "internalType": "uint256",
          "name": "votes",
          "type": "uint256"
        }
      ],
      "name": "Voted",
      "type": "event"
    },
    {
      "inputs": [],
      "name": "MIN_VOTES_REQUIRED",
      "outputs": [
        {
          "internalType": "uint256",
          "name": "",
          "type": "uint256"
        }
      ],
      "stateMutability": "view",
      "type": "function"
    },
    {
      "inputs": [],
      "name": "VOTING_PERIOD",
      "outputs": [
        {
          "internalType": "uint256",
          "name": "",
          "type": "uint256"
        }
      ],
      "stateMutability": "view",
      "type": "function"
    },
    {
      "inputs": [
        {
          "internalType": "uint256",
          "name": "proposalId",
          "type": "uint256"
        }
      ],
      "name": "executeProposal",
      "outputs": [],
      "stateMutability": "nonpayable",
      "type": "function"
    },
    {
      "inputs": [
        {
          "internalType": "uint256",
          "name": "proposalId",
          "type": "uint256"
        }
      ],
      "name": "getProposalState",
      "outputs": [
        {
          "internalType": "enum DAOGovernance.ProposalState",
          "name": "",
          "type": "uint8"
        }
      ],
      "stateMutability": "view",
      "type": "function"
    },
    {
      "inputs": [],
      "name": "governanceToken",
      "outputs": [
        {
          "internalType": "contract GovernanceToken",
          "name": "",
          "type": "address"
        }
      ],
      "stateMutability": "view",
      "type": "function"
    },
    {
      "inputs": [
        {
          "internalType": "uint256",
          "name": "",
          "type": "uint256"
        },
        {
          "internalType": "address",
          "name": "",
          "type": "address"
        }
      ],
      "name": "hasVoted",
      "outputs": [
        {
          "internalType": "bool",
          "name": "",
          "type": "bool"
        }
      ],
      "stateMutability": "view",
      "type": "function"
    },
    {
      "inputs": [],
      "name": "owner",
      "outputs": [
        {
          "internalType": "address",
          "name": "",
          "type": "address"
        }
      ],
      "stateMutability": "view",
      "type": "function"
    },
    {
      "inputs": [],
      "name": "proposalCount",
      "outputs": [
        {
          "internalType": "uint256",
          "name": "",
          "type": "uint256"
        }
      ],
      "stateMutability": "view",
      "type": "function"
    },
    {
      "inputs": [
        {
          "internalType": "uint256",
          "name": "",
          "type": "uint256"
        }
      ],
      "name": "proposals",
      "outputs": [
        {
          "internalType": "uint256",
          "name": "id",
          "type": "uint256"
        },
        {
          "internalType": "address",
          "name": "proposer",
          "type": "address"
        },
        {
          "internalType": "string",
          "name": "description",
          "type": "string"
        },
        {
          "internalType": "uint256",
          "name": "forVotes",
          "type": "uint256"
        },
        {
          "internalType": "uint256",
          "name": "againstVotes",
          "type": "uint256"
        },
        {
          "internalType": "uint256",
          "name": "startBlock",
          "type": "uint256"
        },
        {
          "internalType": "uint256",
          "name": "endTime",
          "type": "uint256"
        },
        {
          "internalType": "bool",
          "name": "executed",
          "type": "bool"
        }
      ],
      "stateMutability": "view",
      "type": "function"
    },
    {
      "inputs": [
        {
          "internalType": "string",
          "name": "description",
          "type": "string"
        }
      ],
      "name": "propose",
      "outputs": [
        {
          "internalType": "uint256",
          "name": "",
          "type": "uint256"
        }
      ],
      "stateMutability": "nonpayable",
      "type": "function"
    },
    {
      "inputs": [],
      "name": "renounceOwnership",
      "outputs": [],
      "stateMutability": "nonpayable",
      "type": "function"
    },
    {
      "inputs": [
        {
          "internalType": "address",
          "name": "newOwner",
          "type": "address"
        }
      ],
      "name": "transferOwnership",
      "outputs": [],
      "stateMutability": "nonpayable",
      "type": "function"
    },
    {
      "inputs": [
        {
          "internalType": "uint256",
          "name": "proposalId",
          "type": "uint256"
        },
        {
          "internalType": "bool",
          "name": "support",
          "type": "bool"
        }
      ],
      "name": "vote",
      "outputs": [],
      "stateMutability": "nonpayable",
      "type": "function"
    }
  ],
  "bytecode": "0x608060405234801561001057600080fd5b50604051610dd2380380610dd283398101604081905261002f916100d4565b338061005557604051631e4fbdf760e01b81526000600482015260240160405180910390fd5b61005e81610084565b50600180546001600160a01b0319166001600160a01b0392909216919091179055610104565b600080546001600160a01b038381166001600160a01b0319831681178455604051919092169283917f8be0079c531659141344cd1fd0a4f28419497f9722a3daafe3b4186f6b6457e09190a35050565b6000602082840312156100e657600080fd5b81516001600160a01b03811681146100fd57600080fd5b9392505050565b610cbf806101136000396000f3fe608060405234801561001057600080fd5b50600436106100cf5760003560e01c8063aa98df391161008c578063c9d27afe11610066578063c9d27afe146101de578063da35c664146101f1578063f2fde38b146101fa578063f96dae0a1461020d57600080fd5b8063aa98df39146101a4578063b1610d7e146101c5578063c58b5129146101ce57600080fd5b8063013cf08b146100d45780630d61b519146101045780634385963214610119578063715018a6146101575780638da5cb5b1461015f5780639080936f14610184575b600080fd5b6100e76100e236600461085d565b610220565b6040516100fb9897969594939291906108bc565b60405180910390f35b61011761011236600461085d565b6102f7565b005b610147610127366004610931565b600360209081526000928352604080842090915290825290205460ff1681565b60405190151581526020016100fb565b6101176103aa565b6000546001600160a01b03165b6040516001600160a01b0390911681526020016100fb565b61019761019236600461085d565b6103be565b6040516100fb9190610973565b6101b76101b23660046109b1565b61041f565b6040519081526020016100fb565b6101b761012c81565b6101b768056bc75e2d6310000081565b6101176101ec366004610a62565b61058d565b6101b760025481565b610117610208366004610a97565b6107a2565b60015461016c906001600160a01b031681565b60046020526000908152604090208054600182015460028301805492936001600160a01b039092169261025290610ab9565b80601f016020809104026020016040519081016040528092919081815260200182805461027e90610ab9565b80156102cb5780601f106102a0576101008083540402835291602001916102cb565b820191906000526020600020905b8154815290600101906020018083116102ae57829003601f168201915b505050600384015460048501546005860154600687015460079097015495969295919450925060ff1688565b6002610302826103be565b60048111156103135761031361095d565b1461035e5760405162461bcd60e51b8152602060048201526016602482015275141c9bdc1bdcd85b081b9bdd081cdd58d8d95959195960521b60448201526064015b60405180910390fd5b60008181526004602052604080822060078101805460ff191660011790559051909183917f712ae1383f79ac853f8d882153778e0260ef8f03b504e2866e0593e04d2b291f9190a25050565b6103b26107e0565b6103bc600061080d565b565b6000818152600460205260408120600781015460ff16156103e25750600492915050565b80600601544210156103f75750600192915050565b8060040154816003015411156104105750600292915050565b50600392915050565b50919050565b6001546040516309ab24eb60e41b815233600482015260009168056bc75e2d63100000916001600160a01b0390911690639ab24eb090602401602060405180830381865afa158015610475573d6000803e3d6000fd5b505050506040513d601f19601f820116820180604052508101906104999190610aed565b10156104da5760405162461bcd60e51b815260206004820152601060248201526f4e6f7420656e6f75676820766f74657360801b6044820152606401610355565b600280549060006104ea83610b1c565b90915550506002805460008181526004602052604090208181556001810180546001600160a01b03191633179055909181016105268582610b84565b5043600582015561053961012c42610c44565b600682015560078101805460ff1916905560405182907f7585f467599d0f008985f231af99293be388626ac16ca59505c2f8f88969cd639061057e9033908890610c5d565b60405180910390a25092915050565b6000828152600460205260409020600681015442106105dd5760405162461bcd60e51b815260206004820152600c60248201526b159bdd1a5b99c8195b99195960a21b6044820152606401610355565b600083815260036020908152604080832033845290915290205460ff16156106375760405162461bcd60e51b815260206004820152600d60248201526c105b1c9958591e481d9bdd1959609a1b6044820152606401610355565b6001546005820154604051630748d63560e31b815233600482015260248101919091526000916001600160a01b031690633a46b1a890604401602060405180830381865afa15801561068d573d6000803e3d6000fd5b505050506040513d601f19601f820116820180604052508101906106b19190610aed565b9050600081116106f55760405162461bcd60e51b815260206004820152600f60248201526e2737903b37ba34b733903837bbb2b960891b6044820152606401610355565b60008481526003602090815260408083203384529091529020805460ff19166001179055821561073e57808260030160008282546107339190610c44565b909155506107589050565b808260040160008282546107529190610c44565b90915550505b60408051338152841515602082015290810182905284907f7c2de587c00d75474a0c6c6fa96fd3b45dc974cd4e8a75f712bb84c950dce1b59060600160405180910390a250505050565b6107aa6107e0565b6001600160a01b0381166107d457604051631e4fbdf760e01b815260006004820152602401610355565b6107dd8161080d565b50565b6000546001600160a01b031633146103bc5760405163118cdaa760e01b8152336004820152602401610355565b600080546001600160a01b038381166001600160a01b0319831681178455604051919092169283917f8be0079c531659141344cd1fd0a4f28419497f9722a3daafe3b4186f6b6457e09190a35050565b60006020828403121561086f57600080fd5b5035919050565b6000815180845260005b8181101561089c57602081850181015186830182015201610880565b506000602082860101526020601f19601f83011685010191505092915050565b8881526001600160a01b0388166020820152610100604082018190526000906108e78382018a610876565b60608401989098525050608081019490945260a084019290925260c0830152151560e0909101529392505050565b80356001600160a01b038116811461092c57600080fd5b919050565b6000806040838503121561094457600080fd5b8235915061095460208401610915565b90509250929050565b634e487b7160e01b600052602160045260246000fd5b602081016005831061099557634e487b7160e01b600052602160045260246000fd5b91905290565b634e487b7160e01b600052604160045260246000fd5b6000602082840312156109c357600080fd5b813567ffffffffffffffff808211156109db57600080fd5b818401915084601f8301126109ef57600080fd5b813581811115610a0157610a0161099b565b604051601f8201601f19908116603f01168101908382118183101715610a2957610a2961099b565b81604052828152876020848701011115610a4257600080fd5b826020860160208301376000928101602001929092525095945050505050565b60008060408385031215610a7557600080fd5b8235915060208301358015158114610a8c57600080fd5b809150509250929050565b600060208284031215610aa957600080fd5b610ab282610915565b9392505050565b600181811c90821680610acd57607f821691505b60208210810361041957634e487b7160e01b600052602260045260246000fd5b600060208284031215610aff57600080fd5b5051919050565b634e487b7160e01b600052601160045260246000fd5b600060018201610b2e57610b2e610b06565b5060010190565b601f821115610b7f57600081815260208120601f850160051c81016020861015610b5c5750805b601f850160051c820191505b81811015610b7b57828155600101610b68565b5050505b505050565b815167ffffffffffffffff811115610b9e57610b9e61099b565b610bb281610bac8454610ab9565b84610b35565b602080601f831160018114610be75760008415610bcf5750858301515b600019600386901b1c1916600185901b178555610b7b565b600085815260208120601f198616915b82811015610c1657888601518255948401946001909101908401610bf7565b5085821015610c345787850151600019600388901b60f8161c191681555b5050505050600190811b01905550565b80820180821115610c5757610c57610b06565b92915050565b6001600160a01b0383168152604060208201819052600090610c8190830184610876565b94935050505056fea264697066735822122017645ec96923d1e036e38a863bca5a7977ec769efb66111dbb6a146fb4ddd7e164736f6c63430008140033",
  "linkReferences": {},
  "deployedLinkReferences": {}
}