{
  "_format": "hh-sol-artifact-1",
  "contractName": "GovernanceToken",
  "sourceName": "contracts/GovernanceToken.sol",
  "abi": [
    {
      "inputs": [
        {
          "internalType": "uint256",
          "name": "initialSupply",
          "type": "uint256"
        }
      ],
      "stateMutability": "nonpayable",
      "type": "constructor"
    },
    {
      "inputs": [],
      "name": "CheckpointUnorderedInsertion",
      "type": "error"
    },
    {
      "inputs": [],
      "name": "ECDSAInvalidSignature",
      "type": "error"
    },
    {
      "inputs": [
        {
          "internalType": "uint256",
          "name": "length",
          "type": "uint256"
        }
      ],
      "name": "ECDSAInvalidSignatureLength",
      "type": "error"
    },
    {
      "inputs": [
        {
          "internalType": "bytes32",
          "name": "s",
          "type": "bytes32"
        }
      ],
      "name": "ECDSAInvalidSignatureS",
      "type": "error"
    },
    {
      "inputs": [
        {
          "internalType": "uint256",
          "name": "increasedSupply",
          "type": "uint256"
        },
        {
          "internalType": "uint256",
          "name": "cap",
          "type": "uint256"
        }
      ],
      "name": "ERC20ExceededSafeSupply",
      "type": "error"
    },
    {
      "inputs": [
        {
          "internalType": "address",
          "name": "spender",
          "type": "address"
        },
        {
          "internalType": "uint256",
          "name": "allowance",
          "type": "uint256"
        },
        {
          "internalType": "uint256",
          "name": "needed",
          "type": "uint256"
        }
      ],
      "name": "ERC20InsufficientAllowance",
      "type": "error"
    },
    {
      "inputs": [
        {
          "internalType": "address",
          "name": "sender",
          "type": "address"
        },
        {
          "internalType": "uint256",
          "name": "balance",
          "type": "uint256"
        },
        {
          "internalType": "uint256",
          "name": "needed",
          "type": "uint256"
        }
      ],
      "name": "ERC20InsufficientBalance",
      "type": "error"
    },
    {
      "inputs": [
        {
          "internalType": "address",
          "name": "approver",
          "type": "address"
        }
      ],
      "name": "ERC20InvalidApprover",
      "type": "error"
    },
    {
      "inputs": [
        {
          "internalType": "address",
          "name": "receiver",
          "type": "address"
        }
      ],
      "name": "ERC20InvalidReceiver",
      "type": "error"
    },
    {
      "inputs": [
        {
          "internalType": "address",
          "name": "sender",
          "type": "address"
        }
      ],
      "name": "ERC20InvalidSender",
      "type": "error"
    },
    {
      "inputs": [
        {
          "internalType": "address",
          "name": "spender",
          "type": "address"
        }
      ],
      "name": "ERC20InvalidSpender",
      "type": "error"
    },
    {
      "inputs": [
        {
          "internalType": "uint256",
          "name": "timepoint",
          "type": "uint256"
        },
        {
          "internalType": "uint48",
          "name": "clock",
          "type": "uint48"
        }
      ],
      "name": "ERC5805FutureLookup",
      "type": "error"
    },
    {
      "inputs": [],
      "name": "ERC6372InconsistentClock",
      "type": "error"
    },
    {
      "inputs": [
        {
          "internalType": "address",
          "name": "account",
          "type": "address"
        },
        {
          "internalType": "uint256",
          "name": "currentNonce",
          "type": "uint256"
        }
      ],
      "name": "InvalidAccountNonce",
      "type": "error"
    },
    {
      "inputs": [],
      "name": "InvalidShortString",
      "type": "error"
    },
    {
      "inputs": [
        {
          "internalType": "uint8",
          "name": "bits",
          "type": "uint8"
        },
        {
          "internalType": "uint256",
          "name": "value",
          "type": "uint256"
        }
      ],
      "name": "SafeCastOverflowedUintDowncast",
      "type": "error"
    },
    {
      "inputs": [
        {
          "internalType": "string",
          "name": "str",
          "type": "string"
        }
      ],
      "name": "StringTooLong",
      "type": "error"
    },
    {
      "inputs": [
        {
          "internalType": "uint256",
          "name": "expiry",
          "type": "uint256"
        }
      ],
      "name": "VotesExpiredSignature",
      "type": "error"
    },
    {
      "anonymous": false,
      "inputs": [
        {
          "indexed": true,
          "internalType": "address",
          "name": "owner",
          "type": "address"
        },
        {
          "indexed": true,
          "internalType": "address",
          "name": "spender",
          "type": "address"
        },
        {
          "indexed": false,
          "internalType": "uint256",
          "name": "value",
          "type": "uint256"
        }
      ],
      "name": "Approval",
      "type": "event"
    },
    {
      "anonymous": false,
      "inputs": [
        {
          "indexed": true,
          "internalType": "address",
          "name": "delegator",
          "type": "address"
        },
        {
          "indexed": true,
          "internalType": "address",
          "name": "fromDelegate",
          "type": "address"
        },
        {
          "indexed": true,
          "internalType": "address",
          "name": "toDelegate",
          "type": "address"
        }
      ],
      "name": "DelegateChanged",
      "type": "event"
    },
    {
      "anonymous": false,
      "inputs": [
        {
          "indexed": true,
          "internalType": "address",
          "name": "delegate",
          "type": "address"
        },
        {
          "indexed": false,
          "internalType": "uint256",
          "name": "previousVotes",
          "type": "uint256"
        },
        {
          "indexed": false,
          "internalType": "uint256",
          "name": "newVotes",
          "type": "uint256"
        }
      ],
      "name": "DelegateVotesChanged",
      "type": "event"
    },
    {
      "anonymous": false,
      "inputs": [],
      "name": "EIP712DomainChanged",
      "type": "event"
    },
    {
      "anonymous": false,
      "inputs": [
        {
          "indexed": true,
          "internalType": "address",
          "name": "from",
          "type": "address"
        },
        {
          "indexed": true,
          "internalType": "address",
          "name": "to",
          "type": "address"
        },
        {
          "indexed": false,
          "internalType": "uint256",
          "name": "value",
          "type": "uint256"
        }
      ],
      "name": "Transfer",
      "type": "event"
    },
    {
      "inputs": [],
      "name": "CLOCK_MODE",
      "outputs": [
        {
          "internalType": "string",
          "name": "",
          "type": "string"
        }
      ],
      "stateMutability": "view",
      "type": "function"
    },
    {
      "inputs": [
        {
          "internalType": "address",
          "name": "owner",
          "type": "address"
        },
        {
          "internalType": "address",
          "name": "spender",
          "type": "address"
        }
      ],
      "name": "allowance",
      "outputs": [
        {
          "internalType": "uint256",
          "name": "",
          "type": "uint256"
        }
      ],
      "stateMutability": "view",
      "type": "function"
    },
    {
      "inputs": [
        {
          "internalType": "address",
          "name": "spender",
          "type": "address"
        },
        {
          "internalType": "uint256",
          "name": "value",
          "type": "uint256"
        }
      ],
      "name": "approve",
      "outputs": [
        {
          "internalType": "bool",
          "name": "",
          "type": "bool"
        }
      ],
      "stateMutability": "nonpayable",
      "type": "function"
    },
    {
      "inputs": [
        {
          "internalType": "address",
          "name": "account",
          "type": "address"
        }
      ],
      "name": "balanceOf",
      "outputs": [
        {
          "internalType": "uint256",
          "name": "",
          "type": "uint256"
        }
      ],
      "stateMutability": "view",
      "type": "function"
    },
    {
      "inputs": [
        {
          "internalType": "address",
          "name": "account",
          "type": "address"
        },
        {
          "internalType": "uint32",
          "name": "pos",
          "type": "uint32"
        }
      ],
      "name": "checkpoints",
      "outputs": [
        {
          "components": [
            {
              "internalType": "uint48",
              "name": "_key",
              "type": "uint48"
            },
            {
              "internalType": "uint208",
              "name": "_value",
              "type": "uint208"
            }
          ],
          "internalType": "struct Checkpoints.Checkpoint208",
          "name": "",
          "type": "tuple"
        }
      ],
      "stateMutability": "view",
      "type": "function"
    },
    {
      "inputs": [],
      "name": "clock",
      "outputs": [
        {
          "internalType": "uint48",
          "name": "",
          "type": "uint48"
        }
      ],
      "stateMutability": "view",
      "type": "function"
    },
    {
      "inputs": [],
      "name": "decimals",
      "outputs": [
        {
          "internalType": "uint8",
          "name": "",
          "type": "uint8"
        }
      ],
      "stateMutability": "view",
      "type": "function"
    },
    {
      "inputs": [
        {
          "internalType": "address",
          "name": "delegatee",
          "type": "address"
        }
      ],
      "name": "delegate",
      "outputs": [],
      "stateMutability": "nonpayable",
      "type": "function"
    },
    {
      "inputs": [
        {
          "internalType": "address",
          "name": "delegatee",
          "type": "address"
        },
        {
          "internalType": "uint256",
          "name": "nonce",
          "type": "uint256"
        },
        {
          "internalType": "uint256",
          "name": "expiry",
          "type": "uint256"
        },
        {
          "internalType": "uint8",
          "name": "v",
          "type": "uint8"
        },
        {
          "internalType": "bytes32",
          "name": "r",
          "type": "bytes32"
        },
        {
          "internalType": "bytes32",
          "name": "s",
          "type": "bytes32"
        }
      ],
      "name": "delegateBySig",
      "outputs": [],
      "stateMutability": "nonpayable",
      "type": "function"
    },
    {
      "inputs": [
        {
          "internalType": "address",
          "name": "account",
          "type": "address"
        }
      ],
      "name": "delegates",
      "outputs": [
        {
          "internalType": "address",
          "name": "",
          "type": "address"
        }
      ],
      "stateMutability": "view",
      "type": "function"
    },
    {
      "inputs": [],
      "name": "eip712Domain",
      "outputs": [
        {
          "internalType": "bytes1",
          "name": "fields",
          "type": "bytes1"
        },
        {
          "internalType": "string",
          "name": "name",
          "type": "string"
        },
        {
          "internalType": "string",
          "name": "version",
          "type": "string"
        },
        {
          "internalType": "uint256",
          "name": "chainId",
          "type": "uint256"
        },
        {
          "internalType": "address",
          "name": "verifyingContract",
          "type": "address"
        },
        {
          "internalType": "bytes32",
          "name": "salt",
          "type": "bytes32"
        },
        {
          "internalType": "uint256[]",
          "name": "extensions",
          "type": "uint256[]"
        }
      ],
      "stateMutability": "view",
      "type": "function"
    },
    {
      "inputs": [
        {
          "internalType": "uint256",
          "name": "timepoint",
          "type": "uint256"
        }
      ],
      "name": "getPastTotalSupply",
      "outputs": [
        {
          "internalType": "uint256",
          "name": "",
          "type": "uint256"
        }
      ],
      "stateMutability": "view",
      "type": "function"
    },
    {
      "inputs": [
        {
          "internalType": "address",
          "name": "account",
          "type": "address"
        },
        {
          "internalType": "uint256",
          "name": "timepoint",
          "type": "uint256"
        }
      ],
      "name": "getPastVotes",
      "outputs": [
        {
          "internalType": "uint256",
          "name": "",
          "type": "uint256"
        }
      ],
      "stateMutability": "view",
      "type": "function"
    },
    {
      "inputs": [
        {
          "internalType": "address",
          "name": "account",
          "type": "address"
        }
      ],
      "name": "getVotes",
      "outputs": [
        {
          "internalType": "uint256",
          "name": "",
          "type": "uint256"
        }
      ],
      "stateMutability": "view",
      "type": "function"
    },
    {
      "inputs": [],
      "name": "name",
      "outputs": [
        {
          "internalType": "string",
          "name": "",
          "type": "string"
        }
      ],
      "stateMutability": "view",
      "type": "function"
    },
    {
      "inputs": [
        {
          "internalType": "address",
          "name": "owner",
          "type": "address"
        }
      ],
      "name": "nonces",
      "outputs": [
        {
          "internalType": "uint256",
          "name": "",
          "type": "uint256"
        }
      ],
      "stateMutability": "view",
      "type": "function"
    },
    {
      "inputs": [
        {
          "internalType": "address",
          "name": "account",
          "type": "address"
        }
      ],
      "name": "numCheckpoints",
      "outputs": [
        {
          "internalType": "uint32",
          "name": "",
          "type": "uint32"
        }
      ],
      "stateMutability": "view",
      "type": "function"
    },
    {
      "inputs": [],
      "name": "symbol",
      "outputs": [
        {
          "internalType": "string",
          "name": "",
          "type": "string"
        }
      ],
      "stateMutability": "view",
      "type": "function"
    },
    {
      "inputs": [],
      "name": "totalSupply",
      "outputs": [
        {
          "internalType": "uint256",
          "name": "",
          "type": "uint256"
        }
      ],
      "stateMutability": "view",
      "type": "function"
    },
    {
      "inputs": [
        {
          "internalType": "address",
          "name": "to",
          "type": "address"
        },
        {
          "internalType": "uint256",
          "name": "value",
          "type": "uint256"
        }
      ],
      "name": "transfer",
      "outputs": [
        {
          "internalType": "bool",
          "name": "",
          "type": "bool"
        }
      ],
      "stateMutability": "nonpayable",
      "type": "function"
    },
    {
      "inputs": [
        {
          "internalType": "address",
          "name": "from",
          "type": "address"
        },
        {
          "internalType": "address",
          "name": "to",
          "type": "address"
        },
        {
          "internalType": "uint256",
          "name": "value",
          "type": "uint256"
        }
      ],
      "name": "transferFrom",
      "outputs": [
        {
          "internalType": "bool",
          "name": "",
          "type": "bool"
        }
      ],
      "stateMutability": "nonpayable",
      "type": "function"
    }
  ],
  "bytecode": "0x6101606040523480156200001257600080fd5b506040516200274b3803806200274b8339810160408190526200003591620008bb565b60408051808201825260148082527f44414f20476f7665726e616e636520546f6b656e00000000000000000000000060208084018290528451808601865260018152603160f81b818301528551808701875293845283820192909252845180860190955260048552632223a7ab60e11b9085015291926003620000b9838262000979565b506004620000c8828262000979565b50620000da9150839050600562000195565b61012052620000eb81600662000195565b61014052815160208084019190912060e052815190820120610100524660a0526200017960e05161010051604080517f8b73c3c69bb8fe3d512ecc4cf759cc79239f7b179b0ffacaa9a75d522b39400f60208201529081019290925260608201524660808201523060a082015260009060c00160405160208183030381529060405280519060200120905090565b60805250503060c0526200018e3382620001ce565b5062000b49565b6000602083511015620001b557620001ad8362000210565b9050620001c8565b81620001c2848262000979565b5060ff90505b92915050565b6001600160a01b038216620001fe5760405163ec442f0560e01b8152600060048201526024015b60405180910390fd5b6200020c6000838362000253565b5050565b600080829050601f815111156200023e578260405163305a27a960e01b8152600401620001f5919062000a45565b80516200024b8262000a95565b179392505050565b6200026083838362000265565b505050565b62000272838383620002d4565b6001600160a01b038316620002c75760006200028d60025490565b90506001600160d01b0380821115620002c457604051630e58ae9360e11b81526004810183905260248101829052604401620001f5565b50505b6200026083838362000407565b6001600160a01b03831662000303578060026000828254620002f7919062000ad0565b90915550620003779050565b6001600160a01b03831660009081526020819052604090205481811015620003585760405163391434e360e21b81526001600160a01b03851660048201526024810182905260448101839052606401620001f5565b6001600160a01b03841660009081526020819052604090209082900390555b6001600160a01b0382166200039557600280548290039055620003b4565b6001600160a01b03821660009081526020819052604090208054820190555b816001600160a01b0316836001600160a01b03167fddf252ad1be2c89b69c2b068fc378daa952ba7f163c4a11628f55a4df523b3ef83604051620003fa91815260200190565b60405180910390a3505050565b6001600160a01b0383166200043c5762000439600a620006e26200049f60201b176200043384620004b4565b620004ee565b50505b6001600160a01b0382166200046b5762000468600a620006ee6200052b60201b176200043384620004b4565b50505b6001600160a01b03838116600090815260086020526040808220548584168352912054620002609291821691168362000539565b6000620004ad828462000ae6565b9392505050565b60006001600160d01b03821115620004ea576040516306dfcc6560e41b815260d0600482015260248101839052604401620001f5565b5090565b6000806200051e620004ff620006a0565b620005156200050e88620006b1565b868860201c565b87919062000700565b915091505b935093915050565b6000620004ad828462000b10565b816001600160a01b0316836001600160a01b0316141580156200055c5750600081115b1562000260576001600160a01b03831615620005ff576001600160a01b038316600090815260096020908152604082208291620005aa91906200052b901b620006ee176200043386620004b4565b6001600160d01b031691506001600160d01b03169150846001600160a01b03166000805160206200272b8339815191528383604051620005f4929190918252602082015260400190565b60405180910390a250505b6001600160a01b0382161562000260576001600160a01b0382166000908152600960209081526040822082916200064791906200049f901b620006e2176200043386620004b4565b6001600160d01b031691506001600160d01b03169150836001600160a01b03166000805160206200272b833981519152838360405162000691929190918252602082015260400190565b60405180910390a25050505050565b6000620006ac62000710565b905090565b80546000908015620006f757620006dd83620006cf60018462000b33565b600091825260209091200190565b54660100000000000090046001600160d01b0316620004ad565b60009392505050565b6000806200051e8585856200071d565b6000620006ac4362000886565b825460009081908015620008275760006200073f87620006cf60018562000b33565b805490915065ffffffffffff80821691660100000000000090046001600160d01b03169088168211156200078657604051632520601d60e01b815260040160405180910390fd5b8765ffffffffffff168265ffffffffffff1603620007c457825465ffffffffffff1666010000000000006001600160d01b0389160217835562000818565b6040805180820190915265ffffffffffff808a1682526001600160d01b03808a1660208085019182528d54600181018f5560008f815291909120945191519092166601000000000000029216919091179101555b94508593506200052392505050565b50506040805180820190915265ffffffffffff80851682526001600160d01b0380851660208085019182528854600181018a5560008a815291822095519251909316660100000000000002919093161792019190915590508162000523565b600065ffffffffffff821115620004ea576040516306dfcc6560e41b81526030600482015260248101839052604401620001f5565b600060208284031215620008ce57600080fd5b5051919050565b634e487b7160e01b600052604160045260246000fd5b600181811c908216806200090057607f821691505b6020821081036200092157634e487b7160e01b600052602260045260246000fd5b50919050565b601f8211156200026057600081815260208120601f850160051c81016020861015620009505750805b601f850160051c820191505b8181101562000971578281556001016200095c565b505050505050565b81516001600160401b03811115620009955762000995620008d5565b620009ad81620009a68454620008eb565b8462000927565b602080601f831160018114620009e55760008415620009cc5750858301515b600019600386901b1c1916600185901b17855562000971565b600085815260208120601f198616915b8281101562000a1657888601518255948401946001909101908401620009f5565b508582101562000a355787850151600019600388901b60f8161c191681555b5050505050600190811b01905550565b600060208083528351808285015260005b8181101562000a745785810183015185820160400152820162000a56565b506000604082860101526040601f19601f8301168501019250505092915050565b80516020808301519190811015620009215760001960209190910360031b1b16919050565b634e487b7160e01b600052601160045260246000fd5b80820180821115620001c857620001c862000aba565b6001600160d01b0381811683821601908082111562000b095762000b0962000aba565b5092915050565b6001600160d01b0382811682821603908082111562000b095762000b0962000aba565b81810381811115620001c857620001c862000aba565b60805160a05160c05160e051610100516101205161014051611b8762000ba460003960006109c20152600061099501526000611117015260006110ef0152600061104a015260006110740152600061109e0152611b876000f3fe608060405234801561001057600080fd5b50600436106101375760003560e01c806370a08231116100b857806395d89b411161007c57806395d89b41146102ec5780639ab24eb0146102f4578063a9059cbb14610307578063c3cda5201461031a578063dd62ed3e1461032d578063f1127ed81461036657600080fd5b806370a082311461024d5780637ecebe001461027657806384b0196e1461029f5780638e539e8c146102ba57806391ddadf4146102cd57600080fd5b80633a46b1a8116100ff5780633a46b1a8146101b15780634bf5d7e9146101c4578063587cde1e146101cc5780635c19a95c146102105780636fcfff451461022557600080fd5b806306fdde031461013c578063095ea7b31461015a57806318160ddd1461017d57806323b872dd1461018f578063313ce567146101a2575b600080fd5b6101446103a5565b60405161015191906117fe565b60405180910390f35b61016d61016836600461182d565b610437565b6040519015158152602001610151565b6002545b604051908152602001610151565b61016d61019d366004611857565b610451565b60405160128152602001610151565b6101816101bf36600461182d565b610475565b6101446104b1565b6101f86101da366004611893565b6001600160a01b039081166000908152600860205260409020541690565b6040516001600160a01b039091168152602001610151565b61022361021e366004611893565b610529565b005b610238610233366004611893565b610538565b60405163ffffffff9091168152602001610151565b61018161025b366004611893565b6001600160a01b031660009081526020819052604090205490565b610181610284366004611893565b6001600160a01b031660009081526007602052604090205490565b6102a7610543565b60405161015197969594939291906118ae565b6101816102c8366004611944565b610589565b6102d56105ae565b60405165ffffffffffff9091168152602001610151565b6101446105bd565b610181610302366004611893565b6105cc565b61016d61031536600461182d565b6105ed565b61022361032836600461195d565b6105fb565b61018161033b3660046119bd565b6001600160a01b03918216600090815260016020908152604080832093909416825291909152205490565b6103796103743660046119f0565b6106bd565b60408051825165ffffffffffff1681526020928301516001600160d01b03169281019290925201610151565b6060600380546103b490611a30565b80601f01602080910402602001604051908101604052809291908181526020018280546103e090611a30565b801561042d5780601f106104025761010080835404028352916020019161042d565b820191906000526020600020905b81548152906001019060200180831161041057829003601f168201915b5050505050905090565b6000336104458185856106fa565b60019150505b92915050565b60003361045f85828561070c565b61046a85858561078b565b506001949350505050565b60006104a1610483836107ea565b6001600160a01b038516600090815260096020526040902090610839565b6001600160d01b03169392505050565b60606104bb6108ef565b65ffffffffffff166104cb6105ae565b65ffffffffffff16146104f1576040516301bfc1c560e61b815260040160405180910390fd5b5060408051808201909152601d81527f6d6f64653d626c6f636b6e756d6265722666726f6d3d64656661756c74000000602082015290565b3361053481836108fa565b5050565b600061044b8261096c565b60006060806000806000606061055761098e565b61055f6109bb565b60408051600080825260208201909252600f60f81b9b939a50919850469750309650945092509050565b600061059f610597836107ea565b600a90610839565b6001600160d01b031692915050565b60006105b86108ef565b905090565b6060600480546103b490611a30565b6001600160a01b038116600090815260096020526040812061059f906109e8565b60003361044581858561078b565b8342111561062457604051632341d78760e11b8152600481018590526024015b60405180910390fd5b604080517fe48329057bfd03d55e49b547132e39cffd9c1820ad7b9d4c5307691425d15adf60208201526001600160a01b03881691810191909152606081018690526080810185905260009061069e906106969060a00160405160208183030381529060405280519060200120610a21565b858585610a4e565b90506106aa8187610a7c565b6106b481886108fa565b50505050505050565b60408051808201909152600080825260208201526106db8383610acf565b9392505050565b60006106db8284611a80565b60006106db8284611aa7565b6107078383836001610b05565b505050565b6001600160a01b03838116600090815260016020908152604080832093861683529290522054600019811015610785578181101561077657604051637dc7a0d960e11b81526001600160a01b0384166004820152602481018290526044810183905260640161061b565b61078584848484036000610b05565b50505050565b6001600160a01b0383166107b557604051634b637e8f60e11b81526000600482015260240161061b565b6001600160a01b0382166107df5760405163ec442f0560e01b81526000600482015260240161061b565b610707838383610bda565b6000806107f56105ae565b90508065ffffffffffff16831061083057604051637669fc0f60e11b81526004810184905265ffffffffffff8216602482015260440161061b565b6106db83610be5565b81546000908181600581111561089857600061085484610c1c565b61085e9085611ac7565b60008881526020902090915081015465ffffffffffff908116908716101561088857809150610896565b610893816001611ada565b92505b505b60006108a687878585610d75565b905080156108e1576108cb876108bd600184611ac7565b600091825260209091200190565b54600160301b90046001600160d01b03166108e4565b60005b979650505050505050565b60006105b843610be5565b6001600160a01b0382811660008181526008602052604080822080548686166001600160a01b0319821681179092559151919094169392849290917f3134e8a2e6d97e929a7e54011ea5485d7d196dd5f0ba4d4ef95803e8e3fc257f9190a4610707818361096786610dd7565b610df5565b6001600160a01b03811660009081526009602052604081205461044b90610f61565b60606105b87f00000000000000000000000000000000000000000000000000000000000000006005610f92565b60606105b87f00000000000000000000000000000000000000000000000000000000000000006006610f92565b80546000908015610a1857610a02836108bd600184611ac7565b54600160301b90046001600160d01b03166106db565b60009392505050565b600061044b610a2e61103d565b8360405161190160f01b8152600281019290925260228201526042902090565b600080600080610a6088888888611168565b925092509250610a708282611237565b50909695505050505050565b6001600160a01b0382166000908152600760205260409020805460018101909155818114610707576040516301d4b62360e61b81526001600160a01b03841660048201526024810182905260440161061b565b60408051808201909152600080825260208201526001600160a01b03831660009081526009602052604090206106db90836112f0565b6001600160a01b038416610b2f5760405163e602df0560e01b81526000600482015260240161061b565b6001600160a01b038316610b5957604051634a1406b160e11b81526000600482015260240161061b565b6001600160a01b038085166000908152600160209081526040808320938716835292905220829055801561078557826001600160a01b0316846001600160a01b03167f8c5be1e5ebec7d5bd14f71427d1e84f3dd0314c0f7b2291e5b200ac8c7c3b92584604051610bcc91815260200190565b60405180910390a350505050565b610707838383611360565b600065ffffffffffff821115610c18576040516306dfcc6560e41b8152603060048201526024810183905260440161061b565b5090565b600060018211610c2a575090565b816001600160801b8210610c435760809190911c9060401b5b680100000000000000008210610c5e5760409190911c9060201b5b6401000000008210610c755760209190911c9060101b5b620100008210610c8a5760109190911c9060081b5b6101008210610c9e5760089190911c9060041b5b60108210610cb15760049190911c9060021b5b60048210610cbd5760011b5b600302600190811c90818581610cd557610cd5611aed565b048201901c90506001818581610ced57610ced611aed565b048201901c90506001818581610d0557610d05611aed565b048201901c90506001818581610d1d57610d1d611aed565b048201901c90506001818581610d3557610d35611aed565b048201901c90506001818581610d4d57610d4d611aed565b048201901c9050610d6c818581610d6657610d66611aed565b04821190565b90039392505050565b60005b81831015610dcf576000610d8c84846113c7565b60008781526020902090915065ffffffffffff86169082015465ffffffffffff161115610dbb57809250610dc9565b610dc6816001611ada565b93505b50610d78565b509392505050565b6001600160a01b03811660009081526020819052604081205461044b565b816001600160a01b0316836001600160a01b031614158015610e175750600081115b15610707576001600160a01b03831615610ebf576001600160a01b03831660009081526009602052604081208190610e5a906106ee610e55866113e2565b611416565b6001600160d01b031691506001600160d01b03169150846001600160a01b03167fdec2bacdd2f05b59de34da9b523dff8be42e5e38e818c82fdb0bae774387a7248383604051610eb4929190918252602082015260400190565b60405180910390a250505b6001600160a01b03821615610707576001600160a01b03821660009081526009602052604081208190610ef8906106e2610e55866113e2565b6001600160d01b031691506001600160d01b03169150836001600160a01b03167fdec2bacdd2f05b59de34da9b523dff8be42e5e38e818c82fdb0bae774387a7248383604051610f52929190918252602082015260400190565b60405180910390a25050505050565b600063ffffffff821115610c18576040516306dfcc6560e41b8152602060048201526024810183905260440161061b565b606060ff8314610fac57610fa58361144f565b905061044b565b818054610fb890611a30565b80601f0160208091040260200160405190810160405280929190818152602001828054610fe490611a30565b80156110315780601f1061100657610100808354040283529160200191611031565b820191906000526020600020905b81548152906001019060200180831161101457829003601f168201915b5050505050905061044b565b6000306001600160a01b037f00000000000000000000000000000000000000000000000000000000000000001614801561109657507f000000000000000000000000000000000000000000000000000000000000000046145b156110c057507f000000000000000000000000000000000000000000000000000000000000000090565b6105b8604080517f8b73c3c69bb8fe3d512ecc4cf759cc79239f7b179b0ffacaa9a75d522b39400f60208201527f0000000000000000000000000000000000000000000000000000000000000000918101919091527f000000000000000000000000000000000000000000000000000000000000000060608201524660808201523060a082015260009060c00160405160208183030381529060405280519060200120905090565b600080807f7fffffffffffffffffffffffffffffff5d576e7357a4501ddfe92f46681b20a08411156111a3575060009150600390508261122d565b604080516000808252602082018084528a905260ff891692820192909252606081018790526080810186905260019060a0016020604051602081039080840390855afa1580156111f7573d6000803e3d6000fd5b5050604051601f1901519150506001600160a01b0381166112235750600092506001915082905061122d565b9250600091508190505b9450945094915050565b600082600381111561124b5761124b611b03565b03611254575050565b600182600381111561126857611268611b03565b036112865760405163f645eedf60e01b815260040160405180910390fd5b600282600381111561129a5761129a611b03565b036112bb5760405163fce698f760e01b81526004810182905260240161061b565b60038260038111156112cf576112cf611b03565b03610534576040516335e2f38360e21b81526004810182905260240161061b565b6040805180820190915260008082526020820152826000018263ffffffff168154811061131f5761131f611b19565b60009182526020918290206040805180820190915291015465ffffffffffff81168252600160301b90046001600160d01b0316918101919091529392505050565b61136b83838361148e565b6001600160a01b0383166113bc57600061138460025490565b90506001600160d01b03808211156113b957604051630e58ae9360e11b8152600481018390526024810182905260440161061b565b50505b6107078383836115b8565b60006113d66002848418611b2f565b6106db90848416611ada565b60006001600160d01b03821115610c18576040516306dfcc6560e41b815260d060048201526024810183905260440161061b565b6000806114426114246105ae565b61143a611430886109e8565b868863ffffffff16565b87919061162e565b915091505b935093915050565b6060600061145c8361163c565b604080516020808252818301909252919250600091906020820181803683375050509182525060208101929092525090565b6001600160a01b0383166114b95780600260008282546114ae9190611ada565b9091555061152b9050565b6001600160a01b0383166000908152602081905260409020548181101561150c5760405163391434e360e21b81526001600160a01b0385166004820152602481018290526044810183905260640161061b565b6001600160a01b03841660009081526020819052604090209082900390555b6001600160a01b03821661154757600280548290039055611566565b6001600160a01b03821660009081526020819052604090208054820190555b816001600160a01b0316836001600160a01b03167fddf252ad1be2c89b69c2b068fc378daa952ba7f163c4a11628f55a4df523b3ef836040516115ab91815260200190565b60405180910390a3505050565b6001600160a01b0383166115da576115d7600a6106e2610e55846113e2565b50505b6001600160a01b0382166115fc576115f9600a6106ee610e55846113e2565b50505b6001600160a01b0383811660009081526008602052604080822054858416835291205461070792918216911683610df5565b600080611442858585611664565b600060ff8216601f81111561044b57604051632cd44ac360e21b815260040160405180910390fd5b82546000908190801561175d576000611682876108bd600185611ac7565b805490915065ffffffffffff80821691600160301b90046001600160d01b03169088168211156116c557604051632520601d60e01b815260040160405180910390fd5b8765ffffffffffff168265ffffffffffff16036116fe57825465ffffffffffff16600160301b6001600160d01b0389160217835561174f565b6040805180820190915265ffffffffffff808a1682526001600160d01b03808a1660208085019182528d54600181018f5560008f81529190912094519151909216600160301b029216919091179101555b945085935061144792505050565b50506040805180820190915265ffffffffffff80851682526001600160d01b0380851660208085019182528854600181018a5560008a815291822095519251909316600160301b029190931617920191909155905081611447565b6000815180845260005b818110156117de576020818501810151868301820152016117c2565b506000602082860101526020601f19601f83011685010191505092915050565b6020815260006106db60208301846117b8565b80356001600160a01b038116811461182857600080fd5b919050565b6000806040838503121561184057600080fd5b61184983611811565b946020939093013593505050565b60008060006060848603121561186c57600080fd5b61187584611811565b925061188360208501611811565b9150604084013590509250925092565b6000602082840312156118a557600080fd5b6106db82611811565b60ff60f81b881681526000602060e0818401526118ce60e084018a6117b8565b83810360408501526118e0818a6117b8565b606085018990526001600160a01b038816608086015260a0850187905284810360c0860152855180825283870192509083019060005b8181101561193257835183529284019291840191600101611916565b50909c9b505050505050505050505050565b60006020828403121561195657600080fd5b5035919050565b60008060008060008060c0878903121561197657600080fd5b61197f87611811565b95506020870135945060408701359350606087013560ff811681146119a357600080fd5b9598949750929560808101359460a0909101359350915050565b600080604083850312156119d057600080fd5b6119d983611811565b91506119e760208401611811565b90509250929050565b60008060408385031215611a0357600080fd5b611a0c83611811565b9150602083013563ffffffff81168114611a2557600080fd5b809150509250929050565b600181811c90821680611a4457607f821691505b602082108103611a6457634e487b7160e01b600052602260045260246000fd5b50919050565b634e487b7160e01b600052601160045260246000fd5b6001600160d01b03818116838216019080821115611aa057611aa0611a6a565b5092915050565b6001600160d01b03828116828216039080821115611aa057611aa0611a6a565b8181038181111561044b5761044b611a6a565b8082018082111561044b5761044b611a6a565b634e487b7160e01b600052601260045260246000fd5b634e487b7160e01b600052602160045260246000fd5b634e487b7160e01b600052603260045260246000fd5b600082611b4c57634e487b7160e01b600052601260045260246000fd5b50049056fea2646970667358221220130663b4a313ab2aea74985a22ce4b0adfb386a668309085ec235d5db78f3dd564736f6c63430008140033dec2bacdd2f05b59de34da9b523dff8be42e5e38e818c82fdb0bae774387a724",
  "linkReferences": {},
  "deployedLinkReferences": {}
}